{
  "_format": "hh-sol-artifact-1",
  "contractName": "CrowdfundingPlatform",
  "sourceName": "contracts/CrowdFunding.sol",
  "abi": [
    {
      "inputs": [],
      "stateMutability": "nonpayable",
      "type": "constructor"
    },
    {
      "anonymous": false,
      "inputs": [
        {
          "indexed": true,
          "internalType": "uint256",
          "name": "campaignId",
          "type": "uint256"
        },
        {
          "indexed": true,
          "internalType": "address",
          "name": "creator",
          "type": "address"
        },
        {
          "indexed": false,
          "internalType": "string",
          "name": "name",
          "type": "string"
        },
        {
          "indexed": false,
          "internalType": "uint256",
          "name": "targetAmount",
          "type": "uint256"
        }
      ],
      "name": "CampaignCreated",
      "type": "event"
    },
    {
      "anonymous": false,
      "inputs": [
        {
          "indexed": true,
          "internalType": "uint256",
          "name": "campaignId",
          "type": "uint256"
        },
        {
          "indexed": false,
          "internalType": "enum CrowdfundingPlatform.CampaignStatus",
          "name": "status",
          "type": "uint8"
        }
      ],
      "name": "CampaignStatusUpdated",
      "type": "event"
    },
    {
      "anonymous": false,
      "inputs": [
        {
          "indexed": true,
          "internalType": "uint256",
          "name": "campaignId",
          "type": "uint256"
        },
        {
          "indexed": true,
          "internalType": "address",
          "name": "contributor",
          "type": "address"
        },
        {
          "indexed": false,
          "internalType": "uint256",
          "name": "amount",
          "type": "uint256"
        }
      ],
      "name": "ContributionMade",
      "type": "event"
    },
    {
      "anonymous": false,
      "inputs": [
        {
          "indexed": true,
          "internalType": "uint256",
          "name": "campaignId",
          "type": "uint256"
        },
        {
          "indexed": true,
          "internalType": "address",
          "name": "creator",
          "type": "address"
        },
        {
          "indexed": false,
          "internalType": "uint256",
          "name": "amount",
          "type": "uint256"
        }
      ],
      "name": "FundsReleased",
      "type": "event"
    },
    {
      "anonymous": false,
      "inputs": [
        {
          "indexed": true,
          "internalType": "uint256",
          "name": "campaignId",
          "type": "uint256"
        },
        {
          "indexed": false,
          "internalType": "uint256",
          "name": "milestoneIndex",
          "type": "uint256"
        },
        {
          "indexed": false,
          "internalType": "address",
          "name": "voter",
          "type": "address"
        }
      ],
      "name": "MilestoneVoteReceived",
      "type": "event"
    },
    {
      "anonymous": false,
      "inputs": [
        {
          "indexed": true,
          "internalType": "address",
          "name": "previousOwner",
          "type": "address"
        },
        {
          "indexed": true,
          "internalType": "address",
          "name": "newOwner",
          "type": "address"
        }
      ],
      "name": "OwnershipTransferred",
      "type": "event"
    },
    {
      "anonymous": false,
      "inputs": [
        {
          "indexed": true,
          "internalType": "uint256",
          "name": "campaignId",
          "type": "uint256"
        },
        {
          "indexed": true,
          "internalType": "address",
          "name": "contributor",
          "type": "address"
        },
        {
          "indexed": false,
          "internalType": "uint256",
          "name": "amount",
          "type": "uint256"
        }
      ],
      "name": "RefundIssued",
      "type": "event"
    },
    {
      "anonymous": false,
      "inputs": [
        {
          "indexed": true,
          "internalType": "uint256",
          "name": "campaignId",
          "type": "uint256"
        },
        {
          "indexed": true,
          "internalType": "address",
          "name": "backer",
          "type": "address"
        }
      ],
      "name": "RewardRedeemed",
      "type": "event"
    },
    {
      "inputs": [],
      "name": "campaignCount",
      "outputs": [
        {
          "internalType": "uint256",
          "name": "",
          "type": "uint256"
        }
      ],
      "stateMutability": "view",
      "type": "function"
    },
    {
      "inputs": [
        {
          "internalType": "uint256",
          "name": "",
          "type": "uint256"
        }
      ],
      "name": "campaigns",
      "outputs": [
        {
          "internalType": "address",
          "name": "creator",
          "type": "address"
        },
        {
          "internalType": "string",
          "name": "name",
          "type": "string"
        },
        {
          "internalType": "string",
          "name": "description",
          "type": "string"
        },
        {
          "internalType": "uint256",
          "name": "targetAmount",
          "type": "uint256"
        },
        {
          "internalType": "uint256",
          "name": "deadline",
          "type": "uint256"
        },
        {
          "internalType": "uint256",
          "name": "raisedAmount",
          "type": "uint256"
        },
        {
          "internalType": "bool",
          "name": "fundsReleased",
          "type": "bool"
        },
        {
          "internalType": "string",
          "name": "driveLink",
          "type": "string"
        },
        {
          "internalType": "enum CrowdfundingPlatform.FundingMode",
          "name": "fundingMode",
          "type": "uint8"
        },
        {
          "internalType": "uint256",
          "name": "backersCount",
          "type": "uint256"
        },
        {
          "internalType": "uint256",
          "name": "rewardQuota",
          "type": "uint256"
        },
        {
          "internalType": "uint256",
          "name": "rewardsRedeemed",
          "type": "uint256"
        },
        {
          "internalType": "string",
          "name": "email",
          "type": "string"
        },
        {
          "internalType": "string",
          "name": "additionalInfo",
          "type": "string"
        },
        {
          "internalType": "enum CrowdfundingPlatform.CampaignStatus",
          "name": "status",
          "type": "uint8"
        }
      ],
      "stateMutability": "view",
      "type": "function"
    },
    {
      "inputs": [],
      "name": "completedCampaigns",
      "outputs": [
        {
          "internalType": "uint256",
          "name": "",
          "type": "uint256"
        }
      ],
      "stateMutability": "view",
      "type": "function"
    },
    {
      "inputs": [
        {
          "internalType": "uint256",
          "name": "campaignId",
          "type": "uint256"
        }
      ],
      "name": "contribute",
      "outputs": [],
      "stateMutability": "payable",
      "type": "function"
    },
    {
      "inputs": [
        {
          "internalType": "uint256",
          "name": "",
          "type": "uint256"
        },
        {
          "internalType": "address",
          "name": "",
          "type": "address"
        },
        {
          "internalType": "uint256",
          "name": "",
          "type": "uint256"
        }
      ],
      "name": "contributions",
      "outputs": [
        {
          "internalType": "uint256",
          "name": "amount",
          "type": "uint256"
        },
        {
          "internalType": "uint256",
          "name": "timestamp",
          "type": "uint256"
        },
        {
          "internalType": "bool",
          "name": "refunded",
          "type": "bool"
        }
      ],
      "stateMutability": "view",
      "type": "function"
    },
    {
      "inputs": [
        {
          "internalType": "string",
          "name": "name",
          "type": "string"
        },
        {
          "internalType": "string",
          "name": "description",
          "type": "string"
        },
        {
          "internalType": "uint256",
          "name": "targetAmount",
          "type": "uint256"
        },
        {
          "internalType": "uint256",
          "name": "deadline",
          "type": "uint256"
        },
        {
          "internalType": "string",
          "name": "driveLink",
          "type": "string"
        },
        {
          "internalType": "enum CrowdfundingPlatform.FundingMode",
          "name": "fundingMode",
          "type": "uint8"
        },
        {
          "internalType": "string",
          "name": "email",
          "type": "string"
        },
        {
          "internalType": "string",
          "name": "additionalInfo",
          "type": "string"
        },
        {
          "internalType": "string[]",
          "name": "milestoneDescriptions",
          "type": "string[]"
        },
        {
          "internalType": "uint256[]",
          "name": "milestoneAmounts",
          "type": "uint256[]"
        },
        {
          "internalType": "string[]",
          "name": "rewardCodes",
          "type": "string[]"
        }
      ],
      "name": "createCampaign",
      "outputs": [
        {
          "internalType": "uint256",
          "name": "",
          "type": "uint256"
        }
      ],
      "stateMutability": "nonpayable",
      "type": "function"
    },
    {
      "inputs": [
        {
          "internalType": "uint256",
          "name": "campaignId",
          "type": "uint256"
        }
      ],
      "name": "getCampaign",
      "outputs": [
        {
          "internalType": "address",
          "name": "creator",
          "type": "address"
        },
        {
          "internalType": "string",
          "name": "name",
          "type": "string"
        },
        {
          "internalType": "string",
          "name": "description",
          "type": "string"
        },
        {
          "internalType": "uint256",
          "name": "targetAmount",
          "type": "uint256"
        },
        {
          "internalType": "uint256",
          "name": "deadline",
          "type": "uint256"
        },
        {
          "internalType": "uint256",
          "name": "raisedAmount",
          "type": "uint256"
        },
        {
          "internalType": "bool",
          "name": "fundsReleased",
          "type": "bool"
        },
        {
          "internalType": "string",
          "name": "driveLink",
          "type": "string"
        },
        {
          "internalType": "enum CrowdfundingPlatform.FundingMode",
          "name": "fundingMode",
          "type": "uint8"
        },
        {
          "internalType": "uint256",
          "name": "backersCount",
          "type": "uint256"
        },
        {
          "internalType": "uint256",
          "name": "rewardQuota",
          "type": "uint256"
        },
        {
          "internalType": "uint256",
          "name": "rewardsRedeemed",
          "type": "uint256"
        },
        {
          "internalType": "enum CrowdfundingPlatform.CampaignStatus",
          "name": "status",
          "type": "uint8"
        }
      ],
      "stateMutability": "view",
      "type": "function"
    },
    {
      "inputs": [],
      "name": "getCampaignCount",
      "outputs": [
        {
          "internalType": "uint256",
          "name": "",
          "type": "uint256"
        }
      ],
      "stateMutability": "view",
      "type": "function"
    },
    {
      "inputs": [
        {
          "internalType": "uint256",
          "name": "campaignId",
          "type": "uint256"
        }
      ],
      "name": "getCampaignMilestones",
      "outputs": [
        {
          "internalType": "string[]",
          "name": "descriptions",
          "type": "string[]"
        },
        {
          "internalType": "uint256[]",
          "name": "amounts",
          "type": "uint256[]"
        },
        {
          "internalType": "bool[]",
          "name": "released",
          "type": "bool[]"
        },
        {
          "internalType": "uint256[]",
          "name": "votesReceived",
          "type": "uint256[]"
        }
      ],
      "stateMutability": "view",
      "type": "function"
    },
    {
      "inputs": [
        {
          "internalType": "uint256",
          "name": "campaignId",
          "type": "uint256"
        },
        {
          "internalType": "address",
          "name": "user",
          "type": "address"
        }
      ],
      "name": "getUserContributions",
      "outputs": [
        {
          "internalType": "uint256[]",
          "name": "amounts",
          "type": "uint256[]"
        },
        {
          "internalType": "uint256[]",
          "name": "timestamps",
          "type": "uint256[]"
        },
        {
          "internalType": "bool[]",
          "name": "refunded",
          "type": "bool[]"
        }
      ],
      "stateMutability": "view",
      "type": "function"
    },
    {
      "inputs": [
        {
          "internalType": "uint256",
          "name": "",
          "type": "uint256"
        },
        {
          "internalType": "address",
          "name": "",
          "type": "address"
        }
      ],
      "name": "hasRedeemedReward",
      "outputs": [
        {
          "internalType": "bool",
          "name": "",
          "type": "bool"
        }
      ],
      "stateMutability": "view",
      "type": "function"
    },
    {
      "inputs": [
        {
          "internalType": "uint256",
          "name": "",
          "type": "uint256"
        },
        {
          "internalType": "address",
          "name": "",
          "type": "address"
        }
      ],
      "name": "hasVoted",
      "outputs": [
        {
          "internalType": "bool",
          "name": "",
          "type": "bool"
        }
      ],
      "stateMutability": "view",
      "type": "function"
    },
    {
      "inputs": [
        {
          "internalType": "uint256",
          "name": "",
          "type": "uint256"
        },
        {
          "internalType": "uint256",
          "name": "",
          "type": "uint256"
        }
      ],
      "name": "milestones",
      "outputs": [
        {
          "internalType": "string",
          "name": "description",
          "type": "string"
        },
        {
          "internalType": "uint256",
          "name": "amount",
          "type": "uint256"
        },
        {
          "internalType": "bool",
          "name": "released",
          "type": "bool"
        },
        {
          "internalType": "uint256",
          "name": "votesReceived",
          "type": "uint256"
        }
      ],
      "stateMutability": "view",
      "type": "function"
    },
    {
      "inputs": [],
      "name": "owner",
      "outputs": [
        {
          "internalType": "address",
          "name": "",
          "type": "address"
        }
      ],
      "stateMutability": "view",
      "type": "function"
    },
    {
      "inputs": [],
      "name": "platformFee",
      "outputs": [
        {
          "internalType": "uint256",
          "name": "",
          "type": "uint256"
        }
      ],
      "stateMutability": "view",
      "type": "function"
    },
    {
      "inputs": [
        {
          "internalType": "uint256",
          "name": "campaignId",
          "type": "uint256"
        }
      ],
      "name": "redeemReward",
      "outputs": [],
      "stateMutability": "nonpayable",
      "type": "function"
    },
    {
      "inputs": [
        {
          "internalType": "uint256",
          "name": "campaignId",
          "type": "uint256"
        }
      ],
      "name": "refund",
      "outputs": [],
      "stateMutability": "nonpayable",
      "type": "function"
    },
    {
      "inputs": [
        {
          "internalType": "uint256",
          "name": "campaignId",
          "type": "uint256"
        }
      ],
      "name": "releaseFunds",
      "outputs": [],
      "stateMutability": "nonpayable",
      "type": "function"
    },
    {
      "inputs": [],
      "name": "renounceOwnership",
      "outputs": [],
      "stateMutability": "nonpayable",
      "type": "function"
    },
    {
      "inputs": [],
      "name": "totalFundsRaised",
      "outputs": [
        {
          "internalType": "uint256",
          "name": "",
          "type": "uint256"
        }
      ],
      "stateMutability": "view",
      "type": "function"
    },
    {
      "inputs": [
        {
          "internalType": "address",
          "name": "newOwner",
          "type": "address"
        }
      ],
      "name": "transferOwnership",
      "outputs": [],
      "stateMutability": "nonpayable",
      "type": "function"
    },
    {
      "inputs": [
        {
          "internalType": "uint256",
          "name": "newFee",
          "type": "uint256"
        }
      ],
      "name": "updatePlatformFee",
      "outputs": [],
      "stateMutability": "nonpayable",
      "type": "function"
    },
    {
      "inputs": [
        {
          "internalType": "uint256",
          "name": "campaignId",
          "type": "uint256"
        },
        {
          "internalType": "uint256",
          "name": "milestoneIndex",
          "type": "uint256"
        }
      ],
      "name": "voteForMilestone",
      "outputs": [],
      "stateMutability": "nonpayable",
      "type": "function"
    }
  ],
  "bytecode": "0x6080806040523461006357600160008181558154336001600160a01b0319821681179093556001600160a01b0316907f8be0079c531659141344cd1fd0a4f28419497f9722a3daafe3b4186f6b6457e09080a36019600655612b9190816100698239f35b600080fdfe6080604052600436101561001257600080fd5b60003560e01c8063141961bc146123255780631c376c63146122aa5780631dbcfc441461222e57806326232a2e14612210578063278ecde114611f19578063427c0c7f14611efb5780634385963214611eae5780634d68282f14611c4f57806351a71b17146119c95780635598f8cc1461189c5780636caa92181461187e578063715018a6146118215780637265d951146117d45780637274e30d146117b65780638da5cb5b1461178d5780639ce3734a1461176f578063aa0b59881461170a578063abfa6f8e14610ac6578063aeb8de89146107b4578063c1cbbca7146104b4578063d0ece989146103a2578063f2fde38b146102d75763f91e4b291461011957600080fd5b346102d2576020806003193601126102d2576004359060029161013e83548210612862565b600052600b81526040600020805492610156846126d9565b61016360405191826124d6565b848152601f19610172866126d9565b0160005b8181106102c357505061018885612b29565b9461019281612b29565b9261019c82612b29565b9460005b83811061024a57505050506040519485946080860160808752835180915260a08701908260a08260051b8a01019501916000905b82821061021657898703858b015289806102128b6102048c6101f68d8d612770565b9085820360408701526127a4565b908382036060850152612770565b0390f35b919380610236819798600194969a9b9c609f199082030186528a5161259d565b9801920192018998979695949391926101d4565b8060036102606102b893859c98999a9b9c612613565b5061026a816124f7565b610274848b612841565b5261027f838a612841565b50600181015461028f848a612841565b5260ff86820154166102a1848c612841565b901515905201546102b2828b612841565b52612832565b9796959493976101a0565b60608382018701528501610176565b600080fd5b346102d25760203660031901126102d2576004356001600160a01b03818116918290036102d2576103066127da565b811561034e57600154826bffffffffffffffffffffffff60a01b821617600155167f8be0079c531659141344cd1fd0a4f28419497f9722a3daafe3b4186f6b6457e0600080a3005b60405162461bcd60e51b815260206004820152602660248201527f4f776e61626c653a206e6577206f776e657220697320746865207a65726f206160448201526564647265737360d01b6064820152608490fd5b346102d25760403660031901126102d2576004356103be612645565b6002916103cd83548210612862565b600052600860205260406000209060018060a01b031660005260205260406000208054906103fa82612b29565b9161040481612b29565b9061040e81612b29565b9260005b82811061045557610439866102128761044788604051958695606087526060870190612770565b908582036020870152612770565b9083820360408501526127a4565b806104636104af928461265b565b505461046f8289612841565b52600161047c828561265b565b5001546104898287612841565b5260ff88610497838661265b565b500154166104a58288612841565b9015159052612832565b610412565b6020806003193601126102d257600435906104cd6128ae565b6104da6002548310612862565b816000526007815260ff600e60406000200154166104f7816125dd565b61077a578160005260078152604060002034156107295780546001600160a01b031633146106e457600401544210156106ab5781600052600781526040600020916005830192610548348554612855565b845560098101938454600195868201809211610695575582600052600884526040600020336000528452604060002060405190610584826124bb565b348252858201914283526040810191600083528054600160401b81101561067f576105b3918a8201815561265b565b929092610669576105df93600292518455518984015551151591019060ff801983541691151516179055565b6105eb34600454612855565b600455546003820154111561062c575b507f0a4a91237423e0a1766a761c7cb029311d8b95d6b1b81db1b949a70c98b4e08e604051923484523393a3600055005b600e018360ff19825416179055807f1289cf89aaaed53d6590c1b7996ba434edb31dcbd322d0b88ff0c02f64bbdeef83604051868152a2836105fb565b634e487b7160e01b600052600060045260246000fd5b634e487b7160e01b600052604160045260246000fd5b634e487b7160e01b600052601160045260246000fd5b6064906040519062461bcd60e51b82526004820152601260248201527110d85b5c185a59db881a185cc8195b99195960721b6044820152fd5b60405162461bcd60e51b815260048101839052601960248201527f43726561746f722063616e6e6f7420636f6e74726962757465000000000000006044820152606490fd5b60405162461bcd60e51b815260048101839052602360248201527f436f6e747269627574696f6e206d75737420626520677265617465722074686160448201526206e20360ec1b6064820152608490fd5b6064906040519062461bcd60e51b82526004820152601360248201527243616d706169676e206e6f742061637469766560681b6044820152fd5b346102d2576107c2366125fd565b906107cb6128ae565b6107d86002548210612862565b8060005260209160078352604060002092600360ff6008860154166107fc816125dd565b03610a825782600052600b8152604060002054821015610a3e5782600052600b815260ff6002610830846040600020612613565b500154166109fa578260005260098152604060002033600052815260ff604060002054166109c6576108623384612a5f565b156109825782600052600b815261087d826040600020612613565b50600381019485549060019687830180931161069557879281558660005260098552604060002033600052855260406000209060ff19918483825416179055546009830154841c10610901575b82877f875aa55c75a24f02c8af68dc5fe8b584bad0fae6393e6f24f872885f69f4efcd6040898982519182523390820152a2600055005b6002840180549091168317905554910154600091829182918291906001600160a01b03165af161092f612953565b501561093e57848481806108ca565b6064906040519062461bcd60e51b82526004820152601960248201527f4d696c6573746f6e65207472616e73666572206661696c6564000000000000006044820152fd5b6064906040519062461bcd60e51b82526004820152601d60248201527f4d757374206265206120636f6e7472696275746f7220746f20766f74650000006044820152fd5b6064906040519062461bcd60e51b82526004820152600d60248201526c105b1c9958591e481d9bdd1959609a1b6044820152fd5b6064906040519062461bcd60e51b82526004820152601a60248201527f4d696c6573746f6e6520616c72656164792072656c65617365640000000000006044820152fd5b6064906040519062461bcd60e51b82526004820152601760248201527f496e76616c6964206d696c6573746f6e6520696e6465780000000000000000006044820152fd5b6064906040519062461bcd60e51b82526004820152601e60248201527f4e6f742061206d696c6573746f6e652d62617365642063616d706169676e00006044820152fd5b346102d2576101603660031901126102d2576004356001600160401b0381116102d257610af7903690600401612692565b6024356001600160401b0381116102d257610b16903690600401612692565b906084356001600160401b0381116102d257610b36903690600401612692565b90600460a43510156102d25760c4356001600160401b0381116102d257610b61903690600401612692565b9260e4356001600160401b0381116102d257610b81903690600401612692565b90610104356001600160401b0381116102d257610ba29036906004016126f0565b946001600160401b0361012435116102d257366023610124350112156102d257610124356004013592610bd4846126d9565b93610be260405195866124d6565b808552602085013660248360051b610124350101116102d25760246101243501905b60248360051b61012435010182106116fa57505050610144356001600160401b0381116102d257610c399036906004016126f0565b91604435156116a9574260643511156116645785511561162857610c5e60a4356125dd565b600360a43514611560575b60025496876000526007602052604060002094336bffffffffffffffffffffffff60a01b87541617865587516001600160401b03811161067f57610cb06001880154612481565b601f8111611519575b50806020601f82116001146114ab576000916114a0575b508160011b916000199060031b1c19161760018701555b8051906001600160401b03821161067f578190610d076002890154612481565b601f811161144d575b50602090601f83116001146113db576000926113d0575b50508160011b916000199060031b1c19161760028601555b604435600386015560643560048601558051906001600160401b03821161067f578190610d6f6007880154612481565b601f811161137d575b50602090601f831160011461130b57600092611300575b50508160011b916000199060031b1c19161760078501555b60088401610db660a4356125dd565b60ff1981541660ff60a435161790558051906001600160401b03821161067f578190610de5600c870154612481565b601f81116112ad575b50602090601f831160011461123b57600092611230575b50508160011b916000199060031b1c191617600c8401555b8051906001600160401b03821161067f57610e3b600d850154612481565b601f81116111e9575b50602090601f831160011461117657600a9392916000918361116b575b50508160011b916000199060031b1c191617600d8401555b600e8301805460ff1916905551910155610e9460a4356125dd565b600360a43514610ef9575b60208383600160025401600255817f825fb10f7650ed27414d6f86acdf7d5946927d9b25001f045f1a2435deec02fe610ee36040519360408552604085019061259d565b92604435868201528033940390a3604051908152f35b909160009190825b85518410156110fd5781600052600b6020526040600020610f228588612841565b5190610f2e8686612841565b51604051928360808101106001600160401b0360808601111761067f57608084016040528352602083015260006040830152600060608301528054600160401b81101561067f57610f8491600182018155612613565b9190916106695780518051906001600160401b03821161067f57610fa88454612481565b601f81116110b9575b50602090601f83116001146110435761103295938361102c9694600394606094600092611038575b50508160011b9160001990861b1c19161784555b6020810151600185015561101660408201511515600286019060ff801983541691151516179055565b01519101556110258686612841565b5190612855565b93612832565b92610f01565b015190508e80610fd9565b908460005260206000209160005b601f19851681106110a15750936001846003946060946110329a9861102c9a98601f19811610611089575b505050811b018455610fed565b015160001983881b60f8161c191690558e808061107c565b91926020600181928685015181550194019201611051565b846000526020600020601f840160051c8101602085106110f6575b601f830160051c820181106110ea575050610fb1565b600081556001016110d4565b50806110d4565b92509293505060443503611112578183610e9f565b60405162461bcd60e51b815260206004820152602b60248201527f4d696c6573746f6e6520616d6f756e7473206d7573742073756d20746f20746160448201526a1c99d95d08185b5bdd5b9d60aa1b6064820152608490fd5b015190508980610e61565b90600d850160005260206000209160005b601f19851681106111d15750918391600193600a9695601f198116106111b8575b505050811b01600d840155610e79565b015160001960f88460031b161c191690558980806111a8565b91926020600181928685015181550194019201611187565b600d85016000526020600020601f840160051c810160208510611229575b601f830160051c8201811061121d575050610e44565b60008155600101611207565b5080611207565b015190508980610e05565b9250600c86016000526020600020906000935b601f1984168510611292576001945083601f19811610611279575b505050811b01600c840155610e1d565b015160001960f88460031b161c19169055898080611269565b8181015183556020948501946001909301929091019061124e565b909150600c86016000526020600020601f840160051c8101602085106112f9575b90849392915b601f830160051c820181106112ea575050610dee565b600081558594506001016112d4565b50806112ce565b015190508a80610d8f565b9250600787016000526020600020906000935b601f1984168510611362576001945083601f19811610611349575b505050811b016007850155610da7565b015160001960f88460031b161c191690558a8080611339565b8181015183556020948501946001909301929091019061131e565b909150600787016000526020600020601f840160051c8101602085106113c9575b90849392915b601f830160051c820181106113ba575050610d78565b600081558594506001016113a4565b508061139e565b015190508b80610d27565b9250600288016000526020600020906000935b601f1984168510611432576001945083601f19811610611419575b505050811b016002860155610d3f565b015160001960f88460031b161c191690558b8080611409565b818101518355602094850194600190930192909101906113ee565b909150600288016000526020600020601f840160051c810160208510611499575b90849392915b601f830160051c8201811061148a575050610d10565b60008155859450600101611474565b508061146e565b90508901518c610cd0565b91506001880160005260206000206000925b8b601f198416851061150257506001935082601f198116106114e9575b5050811b016001870155610ce7565b8b015160001960f88460031b161c191690558c806114da565b8101518255602093840193600190920191016114bd565b600188016000526020600020601f830160051c810160208410611559575b601f830160051c8201811061154d575050610cb9565b60008155600101611537565b5080611537565b8751156115cb578751855114610c695760405162461bcd60e51b815260206004820152602d60248201527f4d696c6573746f6e65206465736372697074696f6e7320616e6420616d6f756e60448201526c0e8e640daeae6e840dac2e8c6d609b1b6064820152608490fd5b60405162461bcd60e51b815260206004820152602f60248201527f4d696c6573746f6e657320726571756972656420666f72206d696c6573746f6e60448201526e652d62617365642066756e64696e6760881b6064820152608490fd5b60405162461bcd60e51b81526020600482015260146024820152734e616d652063616e6e6f7420626520656d70747960601b6044820152606490fd5b60405162461bcd60e51b815260206004820152601e60248201527f446561646c696e65206d75737420626520696e207468652066757475726500006044820152606490fd5b60405162461bcd60e51b8152602060048201526024808201527f54617267657420616d6f756e74206d75737420626520677265617465722074686044820152630616e20360e41b6064820152608490fd5b8135815260209182019101610c04565b346102d25760203660031901126102d2576004356117266127da565b6032811161173357600655005b60405162461bcd60e51b81526020600482015260146024820152734665652063616e6e6f742065786365656420352560601b6044820152606490fd5b346102d25760003660031901126102d2576020600554604051908152f35b346102d25760003660031901126102d2576001546040516001600160a01b039091168152602090f35b346102d25760003660031901126102d2576020600354604051908152f35b346102d25760403660031901126102d2576117ed612645565b600435600052600a60205260406000209060018060a01b0316600052602052602060ff604060002054166040519015158152f35b346102d25760003660031901126102d25761183a6127da565b600180546001600160a01b031981169091556000906001600160a01b03167f8be0079c531659141344cd1fd0a4f28419497f9722a3daafe3b4186f6b6457e08280a3005b346102d25760003660031901126102d2576020600254604051908152f35b346102d25760203660031901126102d25760043560025481106118be90612862565b60005260076020526040600020600160a01b60019003815416600382015491600481015492600582015490600683015460ff1690600884015460ff1693600981015490600a81015492600b82015494600e83015460ff169660018401611923906124f7565b9a611930600286016124f7565b9460070161193d906124f7565b946040519c8d9c8d528c6101a06020819201528d0161195b9161259d565b8c810360408e015261196c9161259d565b9360608c015260808b015260a08a0152151560c089015287810360e08901526119949161259d565b9461199e816125dd565b6101008701526101208601526101408501526101608401526119bf816125dd565b6101808301520390f35b346102d2576020806003193601126102d257600435906119e76128ae565b6002906119f682548410612862565b82600052600781526040600020600a81019081548015611c135785600052600a8452604060002033600052845260ff948560406000205416611bce57600095876000526008865260406000203360005286526040600020805491611a59836126d9565b93611a6760405195866124d6565b838552600092835288832091898087015b868610611b93575050505050505060005b8151811015611b88576040611a9e8284612841565b51015115611ab457611aaf90612832565b611a89565b5050909192935060015b15611b3457600019810190811161069557600b92550180549060018201809211610695575581600052600a815260406000209033600052526040600020600160ff1982541617905533907fcf82e72ef33ae47596b71a21e67ae6afd84285f4bea8089162ca367dcf2f352f600080a36001600055005b60405162461bcd60e51b815260048101859052602660248201527f4d757374206265206120636f6e7472696275746f7220746f2072656465656d206044820152651c995dd85c9960d21b6064820152608490fd5b505090919293611abe565b600191600391604051611ba5816124bb565b875481528488015483820152858789015416151560408201528152019401940193928a90611a78565b60405162461bcd60e51b815260048101869052601760248201527f416c72656164792072656465656d6564207265776172640000000000000000006044820152606490fd5b60405162461bcd60e51b81526004810185905260146024820152734e6f207265776172647320617661696c61626c6560601b6044820152606490fd5b346102d2576020806003193601126102d25760043590611c6d6128ae565b611c7a6002548310612862565b60008281526007825260409020546001600160a01b039081163303611e72578260005260078252604060002090600682019182549260ff8416611e2f57611cc660058301541515612904565b611ccf82612983565b908115611cdc8115612904565b600654908184029184830414171561069557611cff6103e8600192048094612946565b9560ff191617905560055460018101809111610695576000808093819360055586600154165af1611d2e612953565b5015611df457600080808086868654165af1611d48612953565b5015611daf577f6e3c6096795c8298a218b2cfb8bde42726ff7c9a3d27b4d3ba41ab7f74feb5fb847f1289cf89aaaed53d6590c1b7996ba434edb31dcbd322d0b88ff0c02f64bbdeef9594938793541693604051908152a360405160018152a26001600055005b60405162461bcd60e51b815260048101859052601a60248201527f5472616e7366657220746f2063726561746f72206661696c65640000000000006044820152606490fd5b60405162461bcd60e51b8152600481018590526013602482015272119959481d1c985b9cd9995c8819985a5b1959606a1b6044820152606490fd5b6064856040519062461bcd60e51b825280600483015260248201527f46756e6473206861766520616c7265616479206265656e2072656c65617365646044820152fd5b60405162461bcd60e51b81526004810183905260146024820152732737ba1031b0b6b830b4b3b71031b932b0ba37b960611b6044820152606490fd5b346102d25760403660031901126102d257611ec7612645565b600435600052600960205260406000209060018060a01b0316600052602052602060ff604060002054166040519015158152f35b346102d25760003660031901126102d2576020600454604051908152f35b346102d2576020806003193601126102d25760043590611f376128ae565b6002611f4581548410612862565b826000526007825260406000209060048201544211156121d25760ff938460088401541694611f73866125dd565b60019586036121715760058401546003850154111561211c578560009383600052600887526040600020336000528752604060002092826000905b6120b0575b50505050508115928315612009575b505050611fcf5750600055005b6064906040519062461bcd60e51b8252600482015260136024820152724e6f20726566756e6420617661696c61626c6560681b6044820152fd5b600501612017838254612946565b905561202582600454612946565b600455600080808085335af1612039612953565b5015612072576040519182527f7a482fdeb6bc9a1376f597068a214a7a39472bb2eff1b8cad21ba04f49ddca1b843393a3838080611fc2565b60405162461bcd60e51b81526004810185905260166024820152751499599d5b99081d1c985b9cd9995c8819985a5b195960521b6044820152606490fd5b84548110156121175781836120c5838861265b565b50015416156120de575b6120d890612832565b83611fae565b956120f86120d8916120f0898861265b565b505490612855565b9683612104828861265b565b5001805460ff19168617905590506120cf565b611fb3565b60405162461bcd60e51b815260048101869052602760248201527f5461726765742077617320726561636865642c206e6f20726566756e6420617660448201526661696c61626c6560c81b6064820152608490fd5b60405162461bcd60e51b815260048101869052603360248201527f526566756e6473206f6e6c7920617661696c61626c6520666f7220416c6c2d6f604482015272722d4e6f7468696e672063616d706169676e7360681b6064820152608490fd5b60405162461bcd60e51b815260048101849052601660248201527510d85b5c185a59db881a185cc81b9bdd08195b99195960521b6044820152606490fd5b346102d25760003660031901126102d2576020600654604051908152f35b346102d25760603660031901126102d257612247612645565b60443590600435600052600860205260406000209060018060a01b0316600052602052604060002080548210156102d2576060916122849161265b565b5080549060ff600260018301549201541690604051928352602083015215156040820152f35b346102d2576122b8366125fd565b90600052600b602052604060002080548210156102d25761230f916122dc91612613565b506122e6816124f7565b90600181015490600360ff6002830154169101549060405194859460808652608086019061259d565b9260208501521515604084015260608301520390f35b346102d25760203660031901126102d257600435600090815260076020526040902080546001600160a01b031661235e600183016124f7565b9061236b600284016124f7565b926003810154916004820154906005830154600684015460ff1660078501612392906124f7565b92600886015460ff1693600987015491600a88015493600b89015495600c8a016123bb906124f7565b986123c8600d8c016124f7565b9a600e015460ff169b6040519e8f9e8f9687526101e080602089015287016123ef9161259d565b86810360408801526124009161259d565b946060015260808d015260a08c0152151560c08b015289810360e08b01526124279161259d565b93612431816125dd565b61010089015261012088015261014087015261016086015284810361018086015261245b9161259d565b8381036101a085015261246d9161259d565b90612477816125dd565b6101c08301520390f35b90600182811c921680156124b1575b602083101461249b57565b634e487b7160e01b600052602260045260246000fd5b91607f1691612490565b606081019081106001600160401b0382111761067f57604052565b90601f801991011681019081106001600160401b0382111761067f57604052565b906040519182600082549261250b84612481565b90818452600194858116908160001461257a5750600114612537575b5050612535925003836124d6565b565b9093915060005260209081600020936000915b81831061256257505061253593508201013880612527565b8554888401850152948501948794509183019161254a565b91505061253594506020925060ff191682840152151560051b8201013880612527565b919082519283825260005b8481106125c9575050826000602080949584010152601f8019910116010190565b6020818301810151848301820152016125a8565b600411156125e757565b634e487b7160e01b600052602160045260246000fd5b60409060031901126102d2576004359060243590565b805482101561262f5760005260206000209060021b0190600090565b634e487b7160e01b600052603260045260246000fd5b602435906001600160a01b03821682036102d257565b805482101561262f576000526003602060002091020190600090565b6001600160401b03811161067f57601f01601f191660200190565b81601f820112156102d2578035906126a982612677565b926126b760405194856124d6565b828452602083830101116102d257816000926020809301838601378301015290565b6001600160401b03811161067f5760051b60200190565b9080601f830112156102d257813590612708826126d9565b9261271660405194856124d6565b828452602092838086019160051b830101928084116102d257848301915b8483106127445750505050505090565b82356001600160401b0381116102d257869161276584848094890101612692565b815201920191612734565b90815180825260208080930193019160005b828110612790575050505090565b835185529381019392810192600101612782565b90815180825260208080930193019160005b8281106127c4575050505090565b83511515855293810193928101926001016127b6565b6001546001600160a01b031633036127ee57565b606460405162461bcd60e51b815260206004820152602060248201527f4f776e61626c653a2063616c6c6572206973206e6f7420746865206f776e65726044820152fd5b60001981146106955760010190565b805182101561262f5760209160051b010190565b9190820180921161069557565b1561286957565b60405162461bcd60e51b815260206004820152601760248201527f43616d706169676e20646f6573206e6f742065786973740000000000000000006044820152606490fd5b6002600054146128bf576002600055565b60405162461bcd60e51b815260206004820152601f60248201527f5265656e7472616e637947756172643a207265656e7472616e742063616c6c006044820152606490fd5b1561290b57565b60405162461bcd60e51b81526020600482015260136024820152724e6f2066756e647320746f2072656c6561736560681b6044820152606490fd5b9190820391821161069557565b3d1561297e573d9061296482612677565b9161297260405193846124d6565b82523d6000602084013e565b606090565b60ff600882015416612994816125dd565b806129a157506005015490565b6129aa816125dd565b60018103612a0b57506003600582015491015481106129c65790565b60405162461bcd60e51b815260206004820152601960248201527f54617267657420616d6f756e74206e6f742072656163686564000000000000006044820152606490fd5b80612a176002926125dd565b03612a23576005015490565b60405162461bcd60e51b8152602060048201526014602482015273496e76616c69642066756e64696e67206d6f646560601b6044820152606490fd5b9060009182526020600881526040918284209060018060a01b031684528152818320805490612a8d826126d9565b92612a9a855194856124d6565b82845280840191865280862086925b848410612af0575050505050825b8151811015612aea5782612acb8284612841565b51015115612ae157612adc90612832565b612ab7565b50505050600190565b50505090565b6003836001928951612b01816124bb565b85548152848601548382015260ff60028701541615158b820152815201920193019290612aa9565b90612b33826126d9565b612b4060405191826124d6565b8281528092612b51601f19916126d9565b019060203691013756fea2646970667358221220d2671030ea43dab31daadc425fe8fb646625e95aacc0ccea39eacda962a16ada64736f6c63430008130033",
  "linkReferences": {},
  "deployedLinkReferences": {}
}