{"contracts/CrowdFunding.sol":{"CrowdfundingPlatform":{"abi":[{"inputs":[],"stateMutability":"nonpayable","type":"constructor"},{"anonymous":false,"inputs":[{"indexed":true,"internalType":"uint256","name":"campaignId","type":"uint256"},{"indexed":true,"internalType":"address","name":"creator","type":"address"},{"indexed":false,"internalType":"string","name":"name","type":"string"},{"indexed":false,"internalType":"uint256","name":"targetAmount","type":"uint256"}],"name":"CampaignCreated","type":"event"},{"anonymous":false,"inputs":[{"indexed":true,"internalType":"uint256","name":"campaignId","type":"uint256"},{"indexed":false,"internalType":"enum CrowdfundingPlatform.CampaignStatus","name":"status","type":"uint8"}],"name":"CampaignStatusUpdated","type":"event"},{"anonymous":false,"inputs":[{"indexed":true,"internalType":"uint256","name":"campaignId","type":"uint256"},{"indexed":true,"internalType":"address","name":"contributor","type":"address"},{"indexed":false,"internalType":"uint256","name":"amount","type":"uint256"}],"name":"ContributionMade","type":"event"},{"anonymous":false,"inputs":[{"indexed":true,"internalType":"uint256","name":"campaignId","type":"uint256"},{"indexed":true,"internalType":"address","name":"creator","type":"address"},{"indexed":false,"internalType":"uint256","name":"amount","type":"uint256"}],"name":"FundsReleased","type":"event"},{"anonymous":false,"inputs":[{"indexed":true,"internalType":"uint256","name":"campaignId","type":"uint256"},{"indexed":false,"internalType":"uint256","name":"milestoneIndex","type":"uint256"},{"indexed":false,"internalType":"address","name":"voter","type":"address"}],"name":"MilestoneVoteReceived","type":"event"},{"anonymous":false,"inputs":[{"indexed":true,"internalType":"address","name":"previousOwner","type":"address"},{"indexed":true,"internalType":"address","name":"newOwner","type":"address"}],"name":"OwnershipTransferred","type":"event"},{"anonymous":false,"inputs":[{"indexed":true,"internalType":"uint256","name":"campaignId","type":"uint256"},{"indexed":true,"internalType":"address","name":"contributor","type":"address"},{"indexed":false,"internalType":"uint256","name":"amount","type":"uint256"}],"name":"RefundIssued","type":"event"},{"anonymous":false,"inputs":[{"indexed":true,"internalType":"uint256","name":"campaignId","type":"uint256"},{"indexed":true,"internalType":"address","name":"backer","type":"address"}],"name":"RewardRedeemed","type":"event"},{"inputs":[],"name":"campaignCount","outputs":[{"internalType":"uint256","name":"","type":"uint256"}],"stateMutability":"view","type":"function"},{"inputs":[{"internalType":"uint256","name":"","type":"uint256"}],"name":"campaigns","outputs":[{"internalType":"address","name":"creator","type":"address"},{"internalType":"string","name":"name","type":"string"},{"internalType":"string","name":"description","type":"string"},{"internalType":"uint256","name":"targetAmount","type":"uint256"},{"internalType":"uint256","name":"deadline","type":"uint256"},{"internalType":"uint256","name":"raisedAmount","type":"uint256"},{"internalType":"bool","name":"fundsReleased","type":"bool"},{"internalType":"string","name":"driveLink","type":"string"},{"internalType":"enum CrowdfundingPlatform.FundingMode","name":"fundingMode","type":"uint8"},{"internalType":"uint256","name":"backersCount","type":"uint256"},{"internalType":"uint256","name":"rewardQuota","type":"uint256"},{"internalType":"uint256","name":"rewardsRedeemed","type":"uint256"},{"internalType":"string","name":"email","type":"string"},{"internalType":"string","name":"additionalInfo","type":"string"},{"internalType":"enum CrowdfundingPlatform.CampaignStatus","name":"status","type":"uint8"}],"stateMutability":"view","type":"function"},{"inputs":[],"name":"completedCampaigns","outputs":[{"internalType":"uint256","name":"","type":"uint256"}],"stateMutability":"view","type":"function"},{"inputs":[{"internalType":"uint256","name":"campaignId","type":"uint256"}],"name":"contribute","outputs":[],"stateMutability":"payable","type":"function"},{"inputs":[{"internalType":"uint256","name":"","type":"uint256"},{"internalType":"address","name":"","type":"address"},{"internalType":"uint256","name":"","type":"uint256"}],"name":"contributions","outputs":[{"internalType":"uint256","name":"amount","type":"uint256"},{"internalType":"uint256","name":"timestamp","type":"uint256"},{"internalType":"bool","name":"refunded","type":"bool"}],"stateMutability":"view","type":"function"},{"inputs":[{"internalType":"string","name":"name","type":"string"},{"internalType":"string","name":"description","type":"string"},{"internalType":"uint256","name":"targetAmount","type":"uint256"},{"internalType":"uint256","name":"deadline","type":"uint256"},{"internalType":"string","name":"driveLink","type":"string"},{"internalType":"enum CrowdfundingPlatform.FundingMode","name":"fundingMode","type":"uint8"},{"internalType":"string","name":"email","type":"string"},{"internalType":"string","name":"additionalInfo","type":"string"},{"internalType":"string[]","name":"milestoneDescriptions","type":"string[]"},{"internalType":"uint256[]","name":"milestoneAmounts","type":"uint256[]"},{"internalType":"string[]","name":"rewardCodes","type":"string[]"}],"name":"createCampaign","outputs":[{"internalType":"uint256","name":"","type":"uint256"}],"stateMutability":"nonpayable","type":"function"},{"inputs":[{"internalType":"uint256","name":"campaignId","type":"uint256"}],"name":"getCampaign","outputs":[{"internalType":"address","name":"creator","type":"address"},{"internalType":"string","name":"name","type":"string"},{"internalType":"string","name":"description","type":"string"},{"internalType":"uint256","name":"targetAmount","type":"uint256"},{"internalType":"uint256","name":"deadline","type":"uint256"},{"internalType":"uint256","name":"raisedAmount","type":"uint256"},{"internalType":"bool","name":"fundsReleased","type":"bool"},{"internalType":"string","name":"driveLink","type":"string"},{"internalType":"enum CrowdfundingPlatform.FundingMode","name":"fundingMode","type":"uint8"},{"internalType":"uint256","name":"backersCount","type":"uint256"},{"internalType":"uint256","name":"rewardQuota","type":"uint256"},{"internalType":"uint256","name":"rewardsRedeemed","type":"uint256"},{"internalType":"enum CrowdfundingPlatform.CampaignStatus","name":"status","type":"uint8"}],"stateMutability":"view","type":"function"},{"inputs":[],"name":"getCampaignCount","outputs":[{"internalType":"uint256","name":"","type":"uint256"}],"stateMutability":"view","type":"function"},{"inputs":[{"internalType":"uint256","name":"campaignId","type":"uint256"}],"name":"getCampaignMilestones","outputs":[{"internalType":"string[]","name":"descriptions","type":"string[]"},{"internalType":"uint256[]","name":"amounts","type":"uint256[]"},{"internalType":"bool[]","name":"released","type":"bool[]"},{"internalType":"uint256[]","name":"votesReceived","type":"uint256[]"}],"stateMutability":"view","type":"function"},{"inputs":[{"internalType":"uint256","name":"campaignId","type":"uint256"},{"internalType":"address","name":"user","type":"address"}],"name":"getUserContributions","outputs":[{"internalType":"uint256[]","name":"amounts","type":"uint256[]"},{"internalType":"uint256[]","name":"timestamps","type":"uint256[]"},{"internalType":"bool[]","name":"refunded","type":"bool[]"}],"stateMutability":"view","type":"function"},{"inputs":[{"internalType":"uint256","name":"","type":"uint256"},{"internalType":"address","name":"","type":"address"}],"name":"hasRedeemedReward","outputs":[{"internalType":"bool","name":"","type":"bool"}],"stateMutability":"view","type":"function"},{"inputs":[{"internalType":"uint256","name":"","type":"uint256"},{"internalType":"address","name":"","type":"address"}],"name":"hasVoted","outputs":[{"internalType":"bool","name":"","type":"bool"}],"stateMutability":"view","type":"function"},{"inputs":[{"internalType":"uint256","name":"","type":"uint256"},{"internalType":"uint256","name":"","type":"uint256"}],"name":"milestones","outputs":[{"internalType":"string","name":"description","type":"string"},{"internalType":"uint256","name":"amount","type":"uint256"},{"internalType":"bool","name":"released","type":"bool"},{"internalType":"uint256","name":"votesReceived","type":"uint256"}],"stateMutability":"view","type":"function"},{"inputs":[],"name":"owner","outputs":[{"internalType":"address","name":"","type":"address"}],"stateMutability":"view","type":"function"},{"inputs":[],"name":"platformFee","outputs":[{"internalType":"uint256","name":"","type":"uint256"}],"stateMutability":"view","type":"function"},{"inputs":[{"internalType":"uint256","name":"campaignId","type":"uint256"}],"name":"redeemReward","outputs":[],"stateMutability":"nonpayable","type":"function"},{"inputs":[{"internalType":"uint256","name":"campaignId","type":"uint256"}],"name":"refund","outputs":[],"stateMutability":"nonpayable","type":"function"},{"inputs":[{"internalType":"uint256","name":"campaignId","type":"uint256"}],"name":"releaseFunds","outputs":[],"stateMutability":"nonpayable","type":"function"},{"inputs":[],"name":"renounceOwnership","outputs":[],"stateMutability":"nonpayable","type":"function"},{"inputs":[],"name":"totalFundsRaised","outputs":[{"internalType":"uint256","name":"","type":"uint256"}],"stateMutability":"view","type":"function"},{"inputs":[{"internalType":"address","name":"newOwner","type":"address"}],"name":"transferOwnership","outputs":[],"stateMutability":"nonpayable","type":"function"},{"inputs":[{"internalType":"uint256","name":"newFee","type":"uint256"}],"name":"updatePlatformFee","outputs":[],"stateMutability":"nonpayable","type":"function"},{"inputs":[{"internalType":"uint256","name":"campaignId","type":"uint256"},{"internalType":"uint256","name":"milestoneIndex","type":"uint256"}],"name":"voteForMilestone","outputs":[],"stateMutability":"nonpayable","type":"function"}],"evm":{"bytecode":{"linkReferences":{},"object":"6080806040523461006357600160008181558154336001600160a01b0319821681179093556001600160a01b0316907f8be0079c531659141344cd1fd0a4f28419497f9722a3daafe3b4186f6b6457e09080a36019600655612b9190816100698239f35b600080fdfe6080604052600436101561001257600080fd5b60003560e01c8063141961bc146123255780631c376c63146122aa5780631dbcfc441461222e57806326232a2e14612210578063278ecde114611f19578063427c0c7f14611efb5780634385963214611eae5780634d68282f14611c4f57806351a71b17146119c95780635598f8cc1461189c5780636caa92181461187e578063715018a6146118215780637265d951146117d45780637274e30d146117b65780638da5cb5b1461178d5780639ce3734a1461176f578063aa0b59881461170a578063abfa6f8e14610ac6578063aeb8de89146107b4578063c1cbbca7146104b4578063d0ece989146103a2578063f2fde38b146102d75763f91e4b291461011957600080fd5b346102d2576020806003193601126102d2576004359060029161013e83548210612862565b600052600b81526040600020805492610156846126d9565b61016360405191826124d6565b848152601f19610172866126d9565b0160005b8181106102c357505061018885612b29565b9461019281612b29565b9261019c82612b29565b9460005b83811061024a57505050506040519485946080860160808752835180915260a08701908260a08260051b8a01019501916000905b82821061021657898703858b015289806102128b6102048c6101f68d8d612770565b9085820360408701526127a4565b908382036060850152612770565b0390f35b919380610236819798600194969a9b9c609f199082030186528a5161259d565b9801920192018998979695949391926101d4565b8060036102606102b893859c98999a9b9c612613565b5061026a816124f7565b610274848b612841565b5261027f838a612841565b50600181015461028f848a612841565b5260ff86820154166102a1848c612841565b901515905201546102b2828b612841565b52612832565b9796959493976101a0565b60608382018701528501610176565b600080fd5b346102d25760203660031901126102d2576004356001600160a01b03818116918290036102d2576103066127da565b811561034e57600154826bffffffffffffffffffffffff60a01b821617600155167f8be0079c531659141344cd1fd0a4f28419497f9722a3daafe3b4186f6b6457e0600080a3005b60405162461bcd60e51b815260206004820152602660248201527f4f776e61626c653a206e6577206f776e657220697320746865207a65726f206160448201526564647265737360d01b6064820152608490fd5b346102d25760403660031901126102d2576004356103be612645565b6002916103cd83548210612862565b600052600860205260406000209060018060a01b031660005260205260406000208054906103fa82612b29565b9161040481612b29565b9061040e81612b29565b9260005b82811061045557610439866102128761044788604051958695606087526060870190612770565b908582036020870152612770565b9083820360408501526127a4565b806104636104af928461265b565b505461046f8289612841565b52600161047c828561265b565b5001546104898287612841565b5260ff88610497838661265b565b500154166104a58288612841565b9015159052612832565b610412565b6020806003193601126102d257600435906104cd6128ae565b6104da6002548310612862565b816000526007815260ff600e60406000200154166104f7816125dd565b61077a578160005260078152604060002034156107295780546001600160a01b031633146106e457600401544210156106ab5781600052600781526040600020916005830192610548348554612855565b845560098101938454600195868201809211610695575582600052600884526040600020336000528452604060002060405190610584826124bb565b348252858201914283526040810191600083528054600160401b81101561067f576105b3918a8201815561265b565b929092610669576105df93600292518455518984015551151591019060ff801983541691151516179055565b6105eb34600454612855565b600455546003820154111561062c575b507f0a4a91237423e0a1766a761c7cb029311d8b95d6b1b81db1b949a70c98b4e08e604051923484523393a3600055005b600e018360ff19825416179055807f1289cf89aaaed53d6590c1b7996ba434edb31dcbd322d0b88ff0c02f64bbdeef83604051868152a2836105fb565b634e487b7160e01b600052600060045260246000fd5b634e487b7160e01b600052604160045260246000fd5b634e487b7160e01b600052601160045260246000fd5b6064906040519062461bcd60e51b82526004820152601260248201527110d85b5c185a59db881a185cc8195b99195960721b6044820152fd5b60405162461bcd60e51b815260048101839052601960248201527f43726561746f722063616e6e6f7420636f6e74726962757465000000000000006044820152606490fd5b60405162461bcd60e51b815260048101839052602360248201527f436f6e747269627574696f6e206d75737420626520677265617465722074686160448201526206e20360ec1b6064820152608490fd5b6064906040519062461bcd60e51b82526004820152601360248201527243616d706169676e206e6f742061637469766560681b6044820152fd5b346102d2576107c2366125fd565b906107cb6128ae565b6107d86002548210612862565b8060005260209160078352604060002092600360ff6008860154166107fc816125dd565b03610a825782600052600b8152604060002054821015610a3e5782600052600b815260ff6002610830846040600020612613565b500154166109fa578260005260098152604060002033600052815260ff604060002054166109c6576108623384612a5f565b156109825782600052600b815261087d826040600020612613565b50600381019485549060019687830180931161069557879281558660005260098552604060002033600052855260406000209060ff19918483825416179055546009830154841c10610901575b82877f875aa55c75a24f02c8af68dc5fe8b584bad0fae6393e6f24f872885f69f4efcd6040898982519182523390820152a2600055005b6002840180549091168317905554910154600091829182918291906001600160a01b03165af161092f612953565b501561093e57848481806108ca565b6064906040519062461bcd60e51b82526004820152601960248201527f4d696c6573746f6e65207472616e73666572206661696c6564000000000000006044820152fd5b6064906040519062461bcd60e51b82526004820152601d60248201527f4d757374206265206120636f6e7472696275746f7220746f20766f74650000006044820152fd5b6064906040519062461bcd60e51b82526004820152600d60248201526c105b1c9958591e481d9bdd1959609a1b6044820152fd5b6064906040519062461bcd60e51b82526004820152601a60248201527f4d696c6573746f6e6520616c72656164792072656c65617365640000000000006044820152fd5b6064906040519062461bcd60e51b82526004820152601760248201527f496e76616c6964206d696c6573746f6e6520696e6465780000000000000000006044820152fd5b6064906040519062461bcd60e51b82526004820152601e60248201527f4e6f742061206d696c6573746f6e652d62617365642063616d706169676e00006044820152fd5b346102d2576101603660031901126102d2576004356001600160401b0381116102d257610af7903690600401612692565b6024356001600160401b0381116102d257610b16903690600401612692565b906084356001600160401b0381116102d257610b36903690600401612692565b90600460a43510156102d25760c4356001600160401b0381116102d257610b61903690600401612692565b9260e4356001600160401b0381116102d257610b81903690600401612692565b90610104356001600160401b0381116102d257610ba29036906004016126f0565b946001600160401b0361012435116102d257366023610124350112156102d257610124356004013592610bd4846126d9565b93610be260405195866124d6565b808552602085013660248360051b610124350101116102d25760246101243501905b60248360051b61012435010182106116fa57505050610144356001600160401b0381116102d257610c399036906004016126f0565b91604435156116a9574260643511156116645785511561162857610c5e60a4356125dd565b600360a43514611560575b60025496876000526007602052604060002094336bffffffffffffffffffffffff60a01b87541617865587516001600160401b03811161067f57610cb06001880154612481565b601f8111611519575b50806020601f82116001146114ab576000916114a0575b508160011b916000199060031b1c19161760018701555b8051906001600160401b03821161067f578190610d076002890154612481565b601f811161144d575b50602090601f83116001146113db576000926113d0575b50508160011b916000199060031b1c19161760028601555b604435600386015560643560048601558051906001600160401b03821161067f578190610d6f6007880154612481565b601f811161137d575b50602090601f831160011461130b57600092611300575b50508160011b916000199060031b1c19161760078501555b60088401610db660a4356125dd565b60ff1981541660ff60a435161790558051906001600160401b03821161067f578190610de5600c870154612481565b601f81116112ad575b50602090601f831160011461123b57600092611230575b50508160011b916000199060031b1c191617600c8401555b8051906001600160401b03821161067f57610e3b600d850154612481565b601f81116111e9575b50602090601f831160011461117657600a9392916000918361116b575b50508160011b916000199060031b1c191617600d8401555b600e8301805460ff1916905551910155610e9460a4356125dd565b600360a43514610ef9575b60208383600160025401600255817f825fb10f7650ed27414d6f86acdf7d5946927d9b25001f045f1a2435deec02fe610ee36040519360408552604085019061259d565b92604435868201528033940390a3604051908152f35b909160009190825b85518410156110fd5781600052600b6020526040600020610f228588612841565b5190610f2e8686612841565b51604051928360808101106001600160401b0360808601111761067f57608084016040528352602083015260006040830152600060608301528054600160401b81101561067f57610f8491600182018155612613565b9190916106695780518051906001600160401b03821161067f57610fa88454612481565b601f81116110b9575b50602090601f83116001146110435761103295938361102c9694600394606094600092611038575b50508160011b9160001990861b1c19161784555b6020810151600185015561101660408201511515600286019060ff801983541691151516179055565b01519101556110258686612841565b5190612855565b93612832565b92610f01565b015190508e80610fd9565b908460005260206000209160005b601f19851681106110a15750936001846003946060946110329a9861102c9a98601f19811610611089575b505050811b018455610fed565b015160001983881b60f8161c191690558e808061107c565b91926020600181928685015181550194019201611051565b846000526020600020601f840160051c8101602085106110f6575b601f830160051c820181106110ea575050610fb1565b600081556001016110d4565b50806110d4565b92509293505060443503611112578183610e9f565b60405162461bcd60e51b815260206004820152602b60248201527f4d696c6573746f6e6520616d6f756e7473206d7573742073756d20746f20746160448201526a1c99d95d08185b5bdd5b9d60aa1b6064820152608490fd5b015190508980610e61565b90600d850160005260206000209160005b601f19851681106111d15750918391600193600a9695601f198116106111b8575b505050811b01600d840155610e79565b015160001960f88460031b161c191690558980806111a8565b91926020600181928685015181550194019201611187565b600d85016000526020600020601f840160051c810160208510611229575b601f830160051c8201811061121d575050610e44565b60008155600101611207565b5080611207565b015190508980610e05565b9250600c86016000526020600020906000935b601f1984168510611292576001945083601f19811610611279575b505050811b01600c840155610e1d565b015160001960f88460031b161c19169055898080611269565b8181015183556020948501946001909301929091019061124e565b909150600c86016000526020600020601f840160051c8101602085106112f9575b90849392915b601f830160051c820181106112ea575050610dee565b600081558594506001016112d4565b50806112ce565b015190508a80610d8f565b9250600787016000526020600020906000935b601f1984168510611362576001945083601f19811610611349575b505050811b016007850155610da7565b015160001960f88460031b161c191690558a8080611339565b8181015183556020948501946001909301929091019061131e565b909150600787016000526020600020601f840160051c8101602085106113c9575b90849392915b601f830160051c820181106113ba575050610d78565b600081558594506001016113a4565b508061139e565b015190508b80610d27565b9250600288016000526020600020906000935b601f1984168510611432576001945083601f19811610611419575b505050811b016002860155610d3f565b015160001960f88460031b161c191690558b8080611409565b818101518355602094850194600190930192909101906113ee565b909150600288016000526020600020601f840160051c810160208510611499575b90849392915b601f830160051c8201811061148a575050610d10565b60008155859450600101611474565b508061146e565b90508901518c610cd0565b91506001880160005260206000206000925b8b601f198416851061150257506001935082601f198116106114e9575b5050811b016001870155610ce7565b8b015160001960f88460031b161c191690558c806114da565b8101518255602093840193600190920191016114bd565b600188016000526020600020601f830160051c810160208410611559575b601f830160051c8201811061154d575050610cb9565b60008155600101611537565b5080611537565b8751156115cb578751855114610c695760405162461bcd60e51b815260206004820152602d60248201527f4d696c6573746f6e65206465736372697074696f6e7320616e6420616d6f756e60448201526c0e8e640daeae6e840dac2e8c6d609b1b6064820152608490fd5b60405162461bcd60e51b815260206004820152602f60248201527f4d696c6573746f6e657320726571756972656420666f72206d696c6573746f6e60448201526e652d62617365642066756e64696e6760881b6064820152608490fd5b60405162461bcd60e51b81526020600482015260146024820152734e616d652063616e6e6f7420626520656d70747960601b6044820152606490fd5b60405162461bcd60e51b815260206004820152601e60248201527f446561646c696e65206d75737420626520696e207468652066757475726500006044820152606490fd5b60405162461bcd60e51b8152602060048201526024808201527f54617267657420616d6f756e74206d75737420626520677265617465722074686044820152630616e20360e41b6064820152608490fd5b8135815260209182019101610c04565b346102d25760203660031901126102d2576004356117266127da565b6032811161173357600655005b60405162461bcd60e51b81526020600482015260146024820152734665652063616e6e6f742065786365656420352560601b6044820152606490fd5b346102d25760003660031901126102d2576020600554604051908152f35b346102d25760003660031901126102d2576001546040516001600160a01b039091168152602090f35b346102d25760003660031901126102d2576020600354604051908152f35b346102d25760403660031901126102d2576117ed612645565b600435600052600a60205260406000209060018060a01b0316600052602052602060ff604060002054166040519015158152f35b346102d25760003660031901126102d25761183a6127da565b600180546001600160a01b031981169091556000906001600160a01b03167f8be0079c531659141344cd1fd0a4f28419497f9722a3daafe3b4186f6b6457e08280a3005b346102d25760003660031901126102d2576020600254604051908152f35b346102d25760203660031901126102d25760043560025481106118be90612862565b60005260076020526040600020600160a01b60019003815416600382015491600481015492600582015490600683015460ff1690600884015460ff1693600981015490600a81015492600b82015494600e83015460ff169660018401611923906124f7565b9a611930600286016124f7565b9460070161193d906124f7565b946040519c8d9c8d528c6101a06020819201528d0161195b9161259d565b8c810360408e015261196c9161259d565b9360608c015260808b015260a08a0152151560c089015287810360e08901526119949161259d565b9461199e816125dd565b6101008701526101208601526101408501526101608401526119bf816125dd565b6101808301520390f35b346102d2576020806003193601126102d257600435906119e76128ae565b6002906119f682548410612862565b82600052600781526040600020600a81019081548015611c135785600052600a8452604060002033600052845260ff948560406000205416611bce57600095876000526008865260406000203360005286526040600020805491611a59836126d9565b93611a6760405195866124d6565b838552600092835288832091898087015b868610611b93575050505050505060005b8151811015611b88576040611a9e8284612841565b51015115611ab457611aaf90612832565b611a89565b5050909192935060015b15611b3457600019810190811161069557600b92550180549060018201809211610695575581600052600a815260406000209033600052526040600020600160ff1982541617905533907fcf82e72ef33ae47596b71a21e67ae6afd84285f4bea8089162ca367dcf2f352f600080a36001600055005b60405162461bcd60e51b815260048101859052602660248201527f4d757374206265206120636f6e7472696275746f7220746f2072656465656d206044820152651c995dd85c9960d21b6064820152608490fd5b505090919293611abe565b600191600391604051611ba5816124bb565b875481528488015483820152858789015416151560408201528152019401940193928a90611a78565b60405162461bcd60e51b815260048101869052601760248201527f416c72656164792072656465656d6564207265776172640000000000000000006044820152606490fd5b60405162461bcd60e51b81526004810185905260146024820152734e6f207265776172647320617661696c61626c6560601b6044820152606490fd5b346102d2576020806003193601126102d25760043590611c6d6128ae565b611c7a6002548310612862565b60008281526007825260409020546001600160a01b039081163303611e72578260005260078252604060002090600682019182549260ff8416611e2f57611cc660058301541515612904565b611ccf82612983565b908115611cdc8115612904565b600654908184029184830414171561069557611cff6103e8600192048094612946565b9560ff191617905560055460018101809111610695576000808093819360055586600154165af1611d2e612953565b5015611df457600080808086868654165af1611d48612953565b5015611daf577f6e3c6096795c8298a218b2cfb8bde42726ff7c9a3d27b4d3ba41ab7f74feb5fb847f1289cf89aaaed53d6590c1b7996ba434edb31dcbd322d0b88ff0c02f64bbdeef9594938793541693604051908152a360405160018152a26001600055005b60405162461bcd60e51b815260048101859052601a60248201527f5472616e7366657220746f2063726561746f72206661696c65640000000000006044820152606490fd5b60405162461bcd60e51b8152600481018590526013602482015272119959481d1c985b9cd9995c8819985a5b1959606a1b6044820152606490fd5b6064856040519062461bcd60e51b825280600483015260248201527f46756e6473206861766520616c7265616479206265656e2072656c65617365646044820152fd5b60405162461bcd60e51b81526004810183905260146024820152732737ba1031b0b6b830b4b3b71031b932b0ba37b960611b6044820152606490fd5b346102d25760403660031901126102d257611ec7612645565b600435600052600960205260406000209060018060a01b0316600052602052602060ff604060002054166040519015158152f35b346102d25760003660031901126102d2576020600454604051908152f35b346102d2576020806003193601126102d25760043590611f376128ae565b6002611f4581548410612862565b826000526007825260406000209060048201544211156121d25760ff938460088401541694611f73866125dd565b60019586036121715760058401546003850154111561211c578560009383600052600887526040600020336000528752604060002092826000905b6120b0575b50505050508115928315612009575b505050611fcf5750600055005b6064906040519062461bcd60e51b8252600482015260136024820152724e6f20726566756e6420617661696c61626c6560681b6044820152fd5b600501612017838254612946565b905561202582600454612946565b600455600080808085335af1612039612953565b5015612072576040519182527f7a482fdeb6bc9a1376f597068a214a7a39472bb2eff1b8cad21ba04f49ddca1b843393a3838080611fc2565b60405162461bcd60e51b81526004810185905260166024820152751499599d5b99081d1c985b9cd9995c8819985a5b195960521b6044820152606490fd5b84548110156121175781836120c5838861265b565b50015416156120de575b6120d890612832565b83611fae565b956120f86120d8916120f0898861265b565b505490612855565b9683612104828861265b565b5001805460ff19168617905590506120cf565b611fb3565b60405162461bcd60e51b815260048101869052602760248201527f5461726765742077617320726561636865642c206e6f20726566756e6420617660448201526661696c61626c6560c81b6064820152608490fd5b60405162461bcd60e51b815260048101869052603360248201527f526566756e6473206f6e6c7920617661696c61626c6520666f7220416c6c2d6f604482015272722d4e6f7468696e672063616d706169676e7360681b6064820152608490fd5b60405162461bcd60e51b815260048101849052601660248201527510d85b5c185a59db881a185cc81b9bdd08195b99195960521b6044820152606490fd5b346102d25760003660031901126102d2576020600654604051908152f35b346102d25760603660031901126102d257612247612645565b60443590600435600052600860205260406000209060018060a01b0316600052602052604060002080548210156102d2576060916122849161265b565b5080549060ff600260018301549201541690604051928352602083015215156040820152f35b346102d2576122b8366125fd565b90600052600b602052604060002080548210156102d25761230f916122dc91612613565b506122e6816124f7565b90600181015490600360ff6002830154169101549060405194859460808652608086019061259d565b9260208501521515604084015260608301520390f35b346102d25760203660031901126102d257600435600090815260076020526040902080546001600160a01b031661235e600183016124f7565b9061236b600284016124f7565b926003810154916004820154906005830154600684015460ff1660078501612392906124f7565b92600886015460ff1693600987015491600a88015493600b89015495600c8a016123bb906124f7565b986123c8600d8c016124f7565b9a600e015460ff169b6040519e8f9e8f9687526101e080602089015287016123ef9161259d565b86810360408801526124009161259d565b946060015260808d015260a08c0152151560c08b015289810360e08b01526124279161259d565b93612431816125dd565b61010089015261012088015261014087015261016086015284810361018086015261245b9161259d565b8381036101a085015261246d9161259d565b90612477816125dd565b6101c08301520390f35b90600182811c921680156124b1575b602083101461249b57565b634e487b7160e01b600052602260045260246000fd5b91607f1691612490565b606081019081106001600160401b0382111761067f57604052565b90601f801991011681019081106001600160401b0382111761067f57604052565b906040519182600082549261250b84612481565b90818452600194858116908160001461257a5750600114612537575b5050612535925003836124d6565b565b9093915060005260209081600020936000915b81831061256257505061253593508201013880612527565b8554888401850152948501948794509183019161254a565b91505061253594506020925060ff191682840152151560051b8201013880612527565b919082519283825260005b8481106125c9575050826000602080949584010152601f8019910116010190565b6020818301810151848301820152016125a8565b600411156125e757565b634e487b7160e01b600052602160045260246000fd5b60409060031901126102d2576004359060243590565b805482101561262f5760005260206000209060021b0190600090565b634e487b7160e01b600052603260045260246000fd5b602435906001600160a01b03821682036102d257565b805482101561262f576000526003602060002091020190600090565b6001600160401b03811161067f57601f01601f191660200190565b81601f820112156102d2578035906126a982612677565b926126b760405194856124d6565b828452602083830101116102d257816000926020809301838601378301015290565b6001600160401b03811161067f5760051b60200190565b9080601f830112156102d257813590612708826126d9565b9261271660405194856124d6565b828452602092838086019160051b830101928084116102d257848301915b8483106127445750505050505090565b82356001600160401b0381116102d257869161276584848094890101612692565b815201920191612734565b90815180825260208080930193019160005b828110612790575050505090565b835185529381019392810192600101612782565b90815180825260208080930193019160005b8281106127c4575050505090565b83511515855293810193928101926001016127b6565b6001546001600160a01b031633036127ee57565b606460405162461bcd60e51b815260206004820152602060248201527f4f776e61626c653a2063616c6c6572206973206e6f7420746865206f776e65726044820152fd5b60001981146106955760010190565b805182101561262f5760209160051b010190565b9190820180921161069557565b1561286957565b60405162461bcd60e51b815260206004820152601760248201527f43616d706169676e20646f6573206e6f742065786973740000000000000000006044820152606490fd5b6002600054146128bf576002600055565b60405162461bcd60e51b815260206004820152601f60248201527f5265656e7472616e637947756172643a207265656e7472616e742063616c6c006044820152606490fd5b1561290b57565b60405162461bcd60e51b81526020600482015260136024820152724e6f2066756e647320746f2072656c6561736560681b6044820152606490fd5b9190820391821161069557565b3d1561297e573d9061296482612677565b9161297260405193846124d6565b82523d6000602084013e565b606090565b60ff600882015416612994816125dd565b806129a157506005015490565b6129aa816125dd565b60018103612a0b57506003600582015491015481106129c65790565b60405162461bcd60e51b815260206004820152601960248201527f54617267657420616d6f756e74206e6f742072656163686564000000000000006044820152606490fd5b80612a176002926125dd565b03612a23576005015490565b60405162461bcd60e51b8152602060048201526014602482015273496e76616c69642066756e64696e67206d6f646560601b6044820152606490fd5b9060009182526020600881526040918284209060018060a01b031684528152818320805490612a8d826126d9565b92612a9a855194856124d6565b82845280840191865280862086925b848410612af0575050505050825b8151811015612aea5782612acb8284612841565b51015115612ae157612adc90612832565b612ab7565b50505050600190565b50505090565b6003836001928951612b01816124bb565b85548152848601548382015260ff60028701541615158b820152815201920193019290612aa9565b90612b33826126d9565b612b4060405191826124d6565b8281528092612b51601f19916126d9565b019060203691013756fea2646970667358221220d2671030ea43dab31daadc425fe8fb646625e95aacc0ccea39eacda962a16ada64736f6c63430008130033","opcodes":"PUSH1 0x80 DUP1 PUSH1 0x40 MSTORE CALLVALUE PUSH2 0x63 JUMPI PUSH1 0x1 PUSH1 0x0 DUP2 DUP2 SSTORE DUP2 SLOAD CALLER PUSH1 0x1 PUSH1 0x1 PUSH1 0xA0 SHL SUB NOT DUP3 AND DUP2 OR SWAP1 SWAP4 SSTORE PUSH1 0x1 PUSH1 0x1 PUSH1 0xA0 SHL SUB AND SWAP1 PUSH32 0x8BE0079C531659141344CD1FD0A4F28419497F9722A3DAAFE3B4186F6B6457E0 SWAP1 DUP1 LOG3 PUSH1 0x19 PUSH1 0x6 SSTORE PUSH2 0x2B91 SWAP1 DUP2 PUSH2 0x69 DUP3 CODECOPY RETURN JUMPDEST PUSH1 0x0 DUP1 REVERT INVALID PUSH1 0x80 PUSH1 0x40 MSTORE PUSH1 0x4 CALLDATASIZE LT ISZERO PUSH2 0x12 JUMPI PUSH1 0x0 DUP1 REVERT JUMPDEST PUSH1 0x0 CALLDATALOAD PUSH1 0xE0 SHR DUP1 PUSH4 0x141961BC EQ PUSH2 0x2325 JUMPI DUP1 PUSH4 0x1C376C63 EQ PUSH2 0x22AA JUMPI DUP1 PUSH4 0x1DBCFC44 EQ PUSH2 0x222E JUMPI DUP1 PUSH4 0x26232A2E EQ PUSH2 0x2210 JUMPI DUP1 PUSH4 0x278ECDE1 EQ PUSH2 0x1F19 JUMPI DUP1 PUSH4 0x427C0C7F EQ PUSH2 0x1EFB JUMPI DUP1 PUSH4 0x43859632 EQ PUSH2 0x1EAE JUMPI DUP1 PUSH4 0x4D68282F EQ PUSH2 0x1C4F JUMPI DUP1 PUSH4 0x51A71B17 EQ PUSH2 0x19C9 JUMPI DUP1 PUSH4 0x5598F8CC EQ PUSH2 0x189C JUMPI DUP1 PUSH4 0x6CAA9218 EQ PUSH2 0x187E JUMPI DUP1 PUSH4 0x715018A6 EQ PUSH2 0x1821 JUMPI DUP1 PUSH4 0x7265D951 EQ PUSH2 0x17D4 JUMPI DUP1 PUSH4 0x7274E30D EQ PUSH2 0x17B6 JUMPI DUP1 PUSH4 0x8DA5CB5B EQ PUSH2 0x178D JUMPI DUP1 PUSH4 0x9CE3734A EQ PUSH2 0x176F JUMPI DUP1 PUSH4 0xAA0B5988 EQ PUSH2 0x170A JUMPI DUP1 PUSH4 0xABFA6F8E EQ PUSH2 0xAC6 JUMPI DUP1 PUSH4 0xAEB8DE89 EQ PUSH2 0x7B4 JUMPI DUP1 PUSH4 0xC1CBBCA7 EQ PUSH2 0x4B4 JUMPI DUP1 PUSH4 0xD0ECE989 EQ PUSH2 0x3A2 JUMPI DUP1 PUSH4 0xF2FDE38B EQ PUSH2 0x2D7 JUMPI PUSH4 0xF91E4B29 EQ PUSH2 0x119 JUMPI PUSH1 0x0 DUP1 REVERT JUMPDEST CALLVALUE PUSH2 0x2D2 JUMPI PUSH1 0x20 DUP1 PUSH1 0x3 NOT CALLDATASIZE ADD SLT PUSH2 0x2D2 JUMPI PUSH1 0x4 CALLDATALOAD SWAP1 PUSH1 0x2 SWAP2 PUSH2 0x13E DUP4 SLOAD DUP3 LT PUSH2 0x2862 JUMP JUMPDEST PUSH1 0x0 MSTORE PUSH1 0xB DUP2 MSTORE PUSH1 0x40 PUSH1 0x0 KECCAK256 DUP1 SLOAD SWAP3 PUSH2 0x156 DUP5 PUSH2 0x26D9 JUMP JUMPDEST PUSH2 0x163 PUSH1 0x40 MLOAD SWAP2 DUP3 PUSH2 0x24D6 JUMP JUMPDEST DUP5 DUP2 MSTORE PUSH1 0x1F NOT PUSH2 0x172 DUP7 PUSH2 0x26D9 JUMP JUMPDEST ADD PUSH1 0x0 JUMPDEST DUP2 DUP2 LT PUSH2 0x2C3 JUMPI POP POP PUSH2 0x188 DUP6 PUSH2 0x2B29 JUMP JUMPDEST SWAP5 PUSH2 0x192 DUP2 PUSH2 0x2B29 JUMP JUMPDEST SWAP3 PUSH2 0x19C DUP3 PUSH2 0x2B29 JUMP JUMPDEST SWAP5 PUSH1 0x0 JUMPDEST DUP4 DUP2 LT PUSH2 0x24A JUMPI POP POP POP POP PUSH1 0x40 MLOAD SWAP5 DUP6 SWAP5 PUSH1 0x80 DUP7 ADD PUSH1 0x80 DUP8 MSTORE DUP4 MLOAD DUP1 SWAP2 MSTORE PUSH1 0xA0 DUP8 ADD SWAP1 DUP3 PUSH1 0xA0 DUP3 PUSH1 0x5 SHL DUP11 ADD ADD SWAP6 ADD SWAP2 PUSH1 0x0 SWAP1 JUMPDEST DUP3 DUP3 LT PUSH2 0x216 JUMPI DUP10 DUP8 SUB DUP6 DUP12 ADD MSTORE DUP10 DUP1 PUSH2 0x212 DUP12 PUSH2 0x204 DUP13 PUSH2 0x1F6 DUP14 DUP14 PUSH2 0x2770 JUMP JUMPDEST SWAP1 DUP6 DUP3 SUB PUSH1 0x40 DUP8 ADD MSTORE PUSH2 0x27A4 JUMP JUMPDEST SWAP1 DUP4 DUP3 SUB PUSH1 0x60 DUP6 ADD MSTORE PUSH2 0x2770 JUMP JUMPDEST SUB SWAP1 RETURN JUMPDEST SWAP2 SWAP4 DUP1 PUSH2 0x236 DUP2 SWAP8 SWAP9 PUSH1 0x1 SWAP5 SWAP7 SWAP11 SWAP12 SWAP13 PUSH1 0x9F NOT SWAP1 DUP3 SUB ADD DUP7 MSTORE DUP11 MLOAD PUSH2 0x259D JUMP JUMPDEST SWAP9 ADD SWAP3 ADD SWAP3 ADD DUP10 SWAP9 SWAP8 SWAP7 SWAP6 SWAP5 SWAP4 SWAP2 SWAP3 PUSH2 0x1D4 JUMP JUMPDEST DUP1 PUSH1 0x3 PUSH2 0x260 PUSH2 0x2B8 SWAP4 DUP6 SWAP13 SWAP9 SWAP10 SWAP11 SWAP12 SWAP13 PUSH2 0x2613 JUMP JUMPDEST POP PUSH2 0x26A DUP2 PUSH2 0x24F7 JUMP JUMPDEST PUSH2 0x274 DUP5 DUP12 PUSH2 0x2841 JUMP JUMPDEST MSTORE PUSH2 0x27F DUP4 DUP11 PUSH2 0x2841 JUMP JUMPDEST POP PUSH1 0x1 DUP2 ADD SLOAD PUSH2 0x28F DUP5 DUP11 PUSH2 0x2841 JUMP JUMPDEST MSTORE PUSH1 0xFF DUP7 DUP3 ADD SLOAD AND PUSH2 0x2A1 DUP5 DUP13 PUSH2 0x2841 JUMP JUMPDEST SWAP1 ISZERO ISZERO SWAP1 MSTORE ADD SLOAD PUSH2 0x2B2 DUP3 DUP12 PUSH2 0x2841 JUMP JUMPDEST MSTORE PUSH2 0x2832 JUMP JUMPDEST SWAP8 SWAP7 SWAP6 SWAP5 SWAP4 SWAP8 PUSH2 0x1A0 JUMP JUMPDEST PUSH1 0x60 DUP4 DUP3 ADD DUP8 ADD MSTORE DUP6 ADD PUSH2 0x176 JUMP JUMPDEST PUSH1 0x0 DUP1 REVERT JUMPDEST CALLVALUE PUSH2 0x2D2 JUMPI PUSH1 0x20 CALLDATASIZE PUSH1 0x3 NOT ADD SLT PUSH2 0x2D2 JUMPI PUSH1 0x4 CALLDATALOAD PUSH1 0x1 PUSH1 0x1 PUSH1 0xA0 SHL SUB DUP2 DUP2 AND SWAP2 DUP3 SWAP1 SUB PUSH2 0x2D2 JUMPI PUSH2 0x306 PUSH2 0x27DA JUMP JUMPDEST DUP2 ISZERO PUSH2 0x34E JUMPI PUSH1 0x1 SLOAD DUP3 PUSH12 0xFFFFFFFFFFFFFFFFFFFFFFFF PUSH1 0xA0 SHL DUP3 AND OR PUSH1 0x1 SSTORE AND PUSH32 0x8BE0079C531659141344CD1FD0A4F28419497F9722A3DAAFE3B4186F6B6457E0 PUSH1 0x0 DUP1 LOG3 STOP JUMPDEST PUSH1 0x40 MLOAD PUSH3 0x461BCD PUSH1 0xE5 SHL DUP2 MSTORE PUSH1 0x20 PUSH1 0x4 DUP3 ADD MSTORE PUSH1 0x26 PUSH1 0x24 DUP3 ADD MSTORE PUSH32 0x4F776E61626C653A206E6577206F776E657220697320746865207A65726F2061 PUSH1 0x44 DUP3 ADD MSTORE PUSH6 0x646472657373 PUSH1 0xD0 SHL PUSH1 0x64 DUP3 ADD MSTORE PUSH1 0x84 SWAP1 REVERT JUMPDEST CALLVALUE PUSH2 0x2D2 JUMPI PUSH1 0x40 CALLDATASIZE PUSH1 0x3 NOT ADD SLT PUSH2 0x2D2 JUMPI PUSH1 0x4 CALLDATALOAD PUSH2 0x3BE PUSH2 0x2645 JUMP JUMPDEST PUSH1 0x2 SWAP2 PUSH2 0x3CD DUP4 SLOAD DUP3 LT PUSH2 0x2862 JUMP JUMPDEST PUSH1 0x0 MSTORE PUSH1 0x8 PUSH1 0x20 MSTORE PUSH1 0x40 PUSH1 0x0 KECCAK256 SWAP1 PUSH1 0x1 DUP1 PUSH1 0xA0 SHL SUB AND PUSH1 0x0 MSTORE PUSH1 0x20 MSTORE PUSH1 0x40 PUSH1 0x0 KECCAK256 DUP1 SLOAD SWAP1 PUSH2 0x3FA DUP3 PUSH2 0x2B29 JUMP JUMPDEST SWAP2 PUSH2 0x404 DUP2 PUSH2 0x2B29 JUMP JUMPDEST SWAP1 PUSH2 0x40E DUP2 PUSH2 0x2B29 JUMP JUMPDEST SWAP3 PUSH1 0x0 JUMPDEST DUP3 DUP2 LT PUSH2 0x455 JUMPI PUSH2 0x439 DUP7 PUSH2 0x212 DUP8 PUSH2 0x447 DUP9 PUSH1 0x40 MLOAD SWAP6 DUP7 SWAP6 PUSH1 0x60 DUP8 MSTORE PUSH1 0x60 DUP8 ADD SWAP1 PUSH2 0x2770 JUMP JUMPDEST SWAP1 DUP6 DUP3 SUB PUSH1 0x20 DUP8 ADD MSTORE PUSH2 0x2770 JUMP JUMPDEST SWAP1 DUP4 DUP3 SUB PUSH1 0x40 DUP6 ADD MSTORE PUSH2 0x27A4 JUMP JUMPDEST DUP1 PUSH2 0x463 PUSH2 0x4AF SWAP3 DUP5 PUSH2 0x265B JUMP JUMPDEST POP SLOAD PUSH2 0x46F DUP3 DUP10 PUSH2 0x2841 JUMP JUMPDEST MSTORE PUSH1 0x1 PUSH2 0x47C DUP3 DUP6 PUSH2 0x265B JUMP JUMPDEST POP ADD SLOAD PUSH2 0x489 DUP3 DUP8 PUSH2 0x2841 JUMP JUMPDEST MSTORE PUSH1 0xFF DUP9 PUSH2 0x497 DUP4 DUP7 PUSH2 0x265B JUMP JUMPDEST POP ADD SLOAD AND PUSH2 0x4A5 DUP3 DUP9 PUSH2 0x2841 JUMP JUMPDEST SWAP1 ISZERO ISZERO SWAP1 MSTORE PUSH2 0x2832 JUMP JUMPDEST PUSH2 0x412 JUMP JUMPDEST PUSH1 0x20 DUP1 PUSH1 0x3 NOT CALLDATASIZE ADD SLT PUSH2 0x2D2 JUMPI PUSH1 0x4 CALLDATALOAD SWAP1 PUSH2 0x4CD PUSH2 0x28AE JUMP JUMPDEST PUSH2 0x4DA PUSH1 0x2 SLOAD DUP4 LT PUSH2 0x2862 JUMP JUMPDEST DUP2 PUSH1 0x0 MSTORE PUSH1 0x7 DUP2 MSTORE PUSH1 0xFF PUSH1 0xE PUSH1 0x40 PUSH1 0x0 KECCAK256 ADD SLOAD AND PUSH2 0x4F7 DUP2 PUSH2 0x25DD JUMP JUMPDEST PUSH2 0x77A JUMPI DUP2 PUSH1 0x0 MSTORE PUSH1 0x7 DUP2 MSTORE PUSH1 0x40 PUSH1 0x0 KECCAK256 CALLVALUE ISZERO PUSH2 0x729 JUMPI DUP1 SLOAD PUSH1 0x1 PUSH1 0x1 PUSH1 0xA0 SHL SUB AND CALLER EQ PUSH2 0x6E4 JUMPI PUSH1 0x4 ADD SLOAD TIMESTAMP LT ISZERO PUSH2 0x6AB JUMPI DUP2 PUSH1 0x0 MSTORE PUSH1 0x7 DUP2 MSTORE PUSH1 0x40 PUSH1 0x0 KECCAK256 SWAP2 PUSH1 0x5 DUP4 ADD SWAP3 PUSH2 0x548 CALLVALUE DUP6 SLOAD PUSH2 0x2855 JUMP JUMPDEST DUP5 SSTORE PUSH1 0x9 DUP2 ADD SWAP4 DUP5 SLOAD PUSH1 0x1 SWAP6 DUP7 DUP3 ADD DUP1 SWAP3 GT PUSH2 0x695 JUMPI SSTORE DUP3 PUSH1 0x0 MSTORE PUSH1 0x8 DUP5 MSTORE PUSH1 0x40 PUSH1 0x0 KECCAK256 CALLER PUSH1 0x0 MSTORE DUP5 MSTORE PUSH1 0x40 PUSH1 0x0 KECCAK256 PUSH1 0x40 MLOAD SWAP1 PUSH2 0x584 DUP3 PUSH2 0x24BB JUMP JUMPDEST CALLVALUE DUP3 MSTORE DUP6 DUP3 ADD SWAP2 TIMESTAMP DUP4 MSTORE PUSH1 0x40 DUP2 ADD SWAP2 PUSH1 0x0 DUP4 MSTORE DUP1 SLOAD PUSH1 0x1 PUSH1 0x40 SHL DUP2 LT ISZERO PUSH2 0x67F JUMPI PUSH2 0x5B3 SWAP2 DUP11 DUP3 ADD DUP2 SSTORE PUSH2 0x265B JUMP JUMPDEST SWAP3 SWAP1 SWAP3 PUSH2 0x669 JUMPI PUSH2 0x5DF SWAP4 PUSH1 0x2 SWAP3 MLOAD DUP5 SSTORE MLOAD DUP10 DUP5 ADD SSTORE MLOAD ISZERO ISZERO SWAP2 ADD SWAP1 PUSH1 0xFF DUP1 NOT DUP4 SLOAD AND SWAP2 ISZERO ISZERO AND OR SWAP1 SSTORE JUMP JUMPDEST PUSH2 0x5EB CALLVALUE PUSH1 0x4 SLOAD PUSH2 0x2855 JUMP JUMPDEST PUSH1 0x4 SSTORE SLOAD PUSH1 0x3 DUP3 ADD SLOAD GT ISZERO PUSH2 0x62C JUMPI JUMPDEST POP PUSH32 0xA4A91237423E0A1766A761C7CB029311D8B95D6B1B81DB1B949A70C98B4E08E PUSH1 0x40 MLOAD SWAP3 CALLVALUE DUP5 MSTORE CALLER SWAP4 LOG3 PUSH1 0x0 SSTORE STOP JUMPDEST PUSH1 0xE ADD DUP4 PUSH1 0xFF NOT DUP3 SLOAD AND OR SWAP1 SSTORE DUP1 PUSH32 0x1289CF89AAAED53D6590C1B7996BA434EDB31DCBD322D0B88FF0C02F64BBDEEF DUP4 PUSH1 0x40 MLOAD DUP7 DUP2 MSTORE LOG2 DUP4 PUSH2 0x5FB JUMP JUMPDEST PUSH4 0x4E487B71 PUSH1 0xE0 SHL PUSH1 0x0 MSTORE PUSH1 0x0 PUSH1 0x4 MSTORE PUSH1 0x24 PUSH1 0x0 REVERT JUMPDEST PUSH4 0x4E487B71 PUSH1 0xE0 SHL PUSH1 0x0 MSTORE PUSH1 0x41 PUSH1 0x4 MSTORE PUSH1 0x24 PUSH1 0x0 REVERT JUMPDEST PUSH4 0x4E487B71 PUSH1 0xE0 SHL PUSH1 0x0 MSTORE PUSH1 0x11 PUSH1 0x4 MSTORE PUSH1 0x24 PUSH1 0x0 REVERT JUMPDEST PUSH1 0x64 SWAP1 PUSH1 0x40 MLOAD SWAP1 PUSH3 0x461BCD PUSH1 0xE5 SHL DUP3 MSTORE PUSH1 0x4 DUP3 ADD MSTORE PUSH1 0x12 PUSH1 0x24 DUP3 ADD MSTORE PUSH18 0x10D85B5C185A59DB881A185CC8195B991959 PUSH1 0x72 SHL PUSH1 0x44 DUP3 ADD MSTORE REVERT JUMPDEST PUSH1 0x40 MLOAD PUSH3 0x461BCD PUSH1 0xE5 SHL DUP2 MSTORE PUSH1 0x4 DUP2 ADD DUP4 SWAP1 MSTORE PUSH1 0x19 PUSH1 0x24 DUP3 ADD MSTORE PUSH32 0x43726561746F722063616E6E6F7420636F6E7472696275746500000000000000 PUSH1 0x44 DUP3 ADD MSTORE PUSH1 0x64 SWAP1 REVERT JUMPDEST PUSH1 0x40 MLOAD PUSH3 0x461BCD PUSH1 0xE5 SHL DUP2 MSTORE PUSH1 0x4 DUP2 ADD DUP4 SWAP1 MSTORE PUSH1 0x23 PUSH1 0x24 DUP3 ADD MSTORE PUSH32 0x436F6E747269627574696F6E206D757374206265206772656174657220746861 PUSH1 0x44 DUP3 ADD MSTORE PUSH3 0x6E203 PUSH1 0xEC SHL PUSH1 0x64 DUP3 ADD MSTORE PUSH1 0x84 SWAP1 REVERT JUMPDEST PUSH1 0x64 SWAP1 PUSH1 0x40 MLOAD SWAP1 PUSH3 0x461BCD PUSH1 0xE5 SHL DUP3 MSTORE PUSH1 0x4 DUP3 ADD MSTORE PUSH1 0x13 PUSH1 0x24 DUP3 ADD MSTORE PUSH19 0x43616D706169676E206E6F7420616374697665 PUSH1 0x68 SHL PUSH1 0x44 DUP3 ADD MSTORE REVERT JUMPDEST CALLVALUE PUSH2 0x2D2 JUMPI PUSH2 0x7C2 CALLDATASIZE PUSH2 0x25FD JUMP JUMPDEST SWAP1 PUSH2 0x7CB PUSH2 0x28AE JUMP JUMPDEST PUSH2 0x7D8 PUSH1 0x2 SLOAD DUP3 LT PUSH2 0x2862 JUMP JUMPDEST DUP1 PUSH1 0x0 MSTORE PUSH1 0x20 SWAP2 PUSH1 0x7 DUP4 MSTORE PUSH1 0x40 PUSH1 0x0 KECCAK256 SWAP3 PUSH1 0x3 PUSH1 0xFF PUSH1 0x8 DUP7 ADD SLOAD AND PUSH2 0x7FC DUP2 PUSH2 0x25DD JUMP JUMPDEST SUB PUSH2 0xA82 JUMPI DUP3 PUSH1 0x0 MSTORE PUSH1 0xB DUP2 MSTORE PUSH1 0x40 PUSH1 0x0 KECCAK256 SLOAD DUP3 LT ISZERO PUSH2 0xA3E JUMPI DUP3 PUSH1 0x0 MSTORE PUSH1 0xB DUP2 MSTORE PUSH1 0xFF PUSH1 0x2 PUSH2 0x830 DUP5 PUSH1 0x40 PUSH1 0x0 KECCAK256 PUSH2 0x2613 JUMP JUMPDEST POP ADD SLOAD AND PUSH2 0x9FA JUMPI DUP3 PUSH1 0x0 MSTORE PUSH1 0x9 DUP2 MSTORE PUSH1 0x40 PUSH1 0x0 KECCAK256 CALLER PUSH1 0x0 MSTORE DUP2 MSTORE PUSH1 0xFF PUSH1 0x40 PUSH1 0x0 KECCAK256 SLOAD AND PUSH2 0x9C6 JUMPI PUSH2 0x862 CALLER DUP5 PUSH2 0x2A5F JUMP JUMPDEST ISZERO PUSH2 0x982 JUMPI DUP3 PUSH1 0x0 MSTORE PUSH1 0xB DUP2 MSTORE PUSH2 0x87D DUP3 PUSH1 0x40 PUSH1 0x0 KECCAK256 PUSH2 0x2613 JUMP JUMPDEST POP PUSH1 0x3 DUP2 ADD SWAP5 DUP6 SLOAD SWAP1 PUSH1 0x1 SWAP7 DUP8 DUP4 ADD DUP1 SWAP4 GT PUSH2 0x695 JUMPI DUP8 SWAP3 DUP2 SSTORE DUP7 PUSH1 0x0 MSTORE PUSH1 0x9 DUP6 MSTORE PUSH1 0x40 PUSH1 0x0 KECCAK256 CALLER PUSH1 0x0 MSTORE DUP6 MSTORE PUSH1 0x40 PUSH1 0x0 KECCAK256 SWAP1 PUSH1 0xFF NOT SWAP2 DUP5 DUP4 DUP3 SLOAD AND OR SWAP1 SSTORE SLOAD PUSH1 0x9 DUP4 ADD SLOAD DUP5 SHR LT PUSH2 0x901 JUMPI JUMPDEST DUP3 DUP8 PUSH32 0x875AA55C75A24F02C8AF68DC5FE8B584BAD0FAE6393E6F24F872885F69F4EFCD PUSH1 0x40 DUP10 DUP10 DUP3 MLOAD SWAP2 DUP3 MSTORE CALLER SWAP1 DUP3 ADD MSTORE LOG2 PUSH1 0x0 SSTORE STOP JUMPDEST PUSH1 0x2 DUP5 ADD DUP1 SLOAD SWAP1 SWAP2 AND DUP4 OR SWAP1 SSTORE SLOAD SWAP2 ADD SLOAD PUSH1 0x0 SWAP2 DUP3 SWAP2 DUP3 SWAP2 DUP3 SWAP2 SWAP1 PUSH1 0x1 PUSH1 0x1 PUSH1 0xA0 SHL SUB AND GAS CALL PUSH2 0x92F PUSH2 0x2953 JUMP JUMPDEST POP ISZERO PUSH2 0x93E JUMPI DUP5 DUP5 DUP2 DUP1 PUSH2 0x8CA JUMP JUMPDEST PUSH1 0x64 SWAP1 PUSH1 0x40 MLOAD SWAP1 PUSH3 0x461BCD PUSH1 0xE5 SHL DUP3 MSTORE PUSH1 0x4 DUP3 ADD MSTORE PUSH1 0x19 PUSH1 0x24 DUP3 ADD MSTORE PUSH32 0x4D696C6573746F6E65207472616E73666572206661696C656400000000000000 PUSH1 0x44 DUP3 ADD MSTORE REVERT JUMPDEST PUSH1 0x64 SWAP1 PUSH1 0x40 MLOAD SWAP1 PUSH3 0x461BCD PUSH1 0xE5 SHL DUP3 MSTORE PUSH1 0x4 DUP3 ADD MSTORE PUSH1 0x1D PUSH1 0x24 DUP3 ADD MSTORE PUSH32 0x4D757374206265206120636F6E7472696275746F7220746F20766F7465000000 PUSH1 0x44 DUP3 ADD MSTORE REVERT JUMPDEST PUSH1 0x64 SWAP1 PUSH1 0x40 MLOAD SWAP1 PUSH3 0x461BCD PUSH1 0xE5 SHL DUP3 MSTORE PUSH1 0x4 DUP3 ADD MSTORE PUSH1 0xD PUSH1 0x24 DUP3 ADD MSTORE PUSH13 0x105B1C9958591E481D9BDD1959 PUSH1 0x9A SHL PUSH1 0x44 DUP3 ADD MSTORE REVERT JUMPDEST PUSH1 0x64 SWAP1 PUSH1 0x40 MLOAD SWAP1 PUSH3 0x461BCD PUSH1 0xE5 SHL DUP3 MSTORE PUSH1 0x4 DUP3 ADD MSTORE PUSH1 0x1A PUSH1 0x24 DUP3 ADD MSTORE PUSH32 0x4D696C6573746F6E6520616C72656164792072656C6561736564000000000000 PUSH1 0x44 DUP3 ADD MSTORE REVERT JUMPDEST PUSH1 0x64 SWAP1 PUSH1 0x40 MLOAD SWAP1 PUSH3 0x461BCD PUSH1 0xE5 SHL DUP3 MSTORE PUSH1 0x4 DUP3 ADD MSTORE PUSH1 0x17 PUSH1 0x24 DUP3 ADD MSTORE PUSH32 0x496E76616C6964206D696C6573746F6E6520696E646578000000000000000000 PUSH1 0x44 DUP3 ADD MSTORE REVERT JUMPDEST PUSH1 0x64 SWAP1 PUSH1 0x40 MLOAD SWAP1 PUSH3 0x461BCD PUSH1 0xE5 SHL DUP3 MSTORE PUSH1 0x4 DUP3 ADD MSTORE PUSH1 0x1E PUSH1 0x24 DUP3 ADD MSTORE PUSH32 0x4E6F742061206D696C6573746F6E652D62617365642063616D706169676E0000 PUSH1 0x44 DUP3 ADD MSTORE REVERT JUMPDEST CALLVALUE PUSH2 0x2D2 JUMPI PUSH2 0x160 CALLDATASIZE PUSH1 0x3 NOT ADD SLT PUSH2 0x2D2 JUMPI PUSH1 0x4 CALLDATALOAD PUSH1 0x1 PUSH1 0x1 PUSH1 0x40 SHL SUB DUP2 GT PUSH2 0x2D2 JUMPI PUSH2 0xAF7 SWAP1 CALLDATASIZE SWAP1 PUSH1 0x4 ADD PUSH2 0x2692 JUMP JUMPDEST PUSH1 0x24 CALLDATALOAD PUSH1 0x1 PUSH1 0x1 PUSH1 0x40 SHL SUB DUP2 GT PUSH2 0x2D2 JUMPI PUSH2 0xB16 SWAP1 CALLDATASIZE SWAP1 PUSH1 0x4 ADD PUSH2 0x2692 JUMP JUMPDEST SWAP1 PUSH1 0x84 CALLDATALOAD PUSH1 0x1 PUSH1 0x1 PUSH1 0x40 SHL SUB DUP2 GT PUSH2 0x2D2 JUMPI PUSH2 0xB36 SWAP1 CALLDATASIZE SWAP1 PUSH1 0x4 ADD PUSH2 0x2692 JUMP JUMPDEST SWAP1 PUSH1 0x4 PUSH1 0xA4 CALLDATALOAD LT ISZERO PUSH2 0x2D2 JUMPI PUSH1 0xC4 CALLDATALOAD PUSH1 0x1 PUSH1 0x1 PUSH1 0x40 SHL SUB DUP2 GT PUSH2 0x2D2 JUMPI PUSH2 0xB61 SWAP1 CALLDATASIZE SWAP1 PUSH1 0x4 ADD PUSH2 0x2692 JUMP JUMPDEST SWAP3 PUSH1 0xE4 CALLDATALOAD PUSH1 0x1 PUSH1 0x1 PUSH1 0x40 SHL SUB DUP2 GT PUSH2 0x2D2 JUMPI PUSH2 0xB81 SWAP1 CALLDATASIZE SWAP1 PUSH1 0x4 ADD PUSH2 0x2692 JUMP JUMPDEST SWAP1 PUSH2 0x104 CALLDATALOAD PUSH1 0x1 PUSH1 0x1 PUSH1 0x40 SHL SUB DUP2 GT PUSH2 0x2D2 JUMPI PUSH2 0xBA2 SWAP1 CALLDATASIZE SWAP1 PUSH1 0x4 ADD PUSH2 0x26F0 JUMP JUMPDEST SWAP5 PUSH1 0x1 PUSH1 0x1 PUSH1 0x40 SHL SUB PUSH2 0x124 CALLDATALOAD GT PUSH2 0x2D2 JUMPI CALLDATASIZE PUSH1 0x23 PUSH2 0x124 CALLDATALOAD ADD SLT ISZERO PUSH2 0x2D2 JUMPI PUSH2 0x124 CALLDATALOAD PUSH1 0x4 ADD CALLDATALOAD SWAP3 PUSH2 0xBD4 DUP5 PUSH2 0x26D9 JUMP JUMPDEST SWAP4 PUSH2 0xBE2 PUSH1 0x40 MLOAD SWAP6 DUP7 PUSH2 0x24D6 JUMP JUMPDEST DUP1 DUP6 MSTORE PUSH1 0x20 DUP6 ADD CALLDATASIZE PUSH1 0x24 DUP4 PUSH1 0x5 SHL PUSH2 0x124 CALLDATALOAD ADD ADD GT PUSH2 0x2D2 JUMPI PUSH1 0x24 PUSH2 0x124 CALLDATALOAD ADD SWAP1 JUMPDEST PUSH1 0x24 DUP4 PUSH1 0x5 SHL PUSH2 0x124 CALLDATALOAD ADD ADD DUP3 LT PUSH2 0x16FA JUMPI POP POP POP PUSH2 0x144 CALLDATALOAD PUSH1 0x1 PUSH1 0x1 PUSH1 0x40 SHL SUB DUP2 GT PUSH2 0x2D2 JUMPI PUSH2 0xC39 SWAP1 CALLDATASIZE SWAP1 PUSH1 0x4 ADD PUSH2 0x26F0 JUMP JUMPDEST SWAP2 PUSH1 0x44 CALLDATALOAD ISZERO PUSH2 0x16A9 JUMPI TIMESTAMP PUSH1 0x64 CALLDATALOAD GT ISZERO PUSH2 0x1664 JUMPI DUP6 MLOAD ISZERO PUSH2 0x1628 JUMPI PUSH2 0xC5E PUSH1 0xA4 CALLDATALOAD PUSH2 0x25DD JUMP JUMPDEST PUSH1 0x3 PUSH1 0xA4 CALLDATALOAD EQ PUSH2 0x1560 JUMPI JUMPDEST PUSH1 0x2 SLOAD SWAP7 DUP8 PUSH1 0x0 MSTORE PUSH1 0x7 PUSH1 0x20 MSTORE PUSH1 0x40 PUSH1 0x0 KECCAK256 SWAP5 CALLER PUSH12 0xFFFFFFFFFFFFFFFFFFFFFFFF PUSH1 0xA0 SHL DUP8 SLOAD AND OR DUP7 SSTORE DUP8 MLOAD PUSH1 0x1 PUSH1 0x1 PUSH1 0x40 SHL SUB DUP2 GT PUSH2 0x67F JUMPI PUSH2 0xCB0 PUSH1 0x1 DUP9 ADD SLOAD PUSH2 0x2481 JUMP JUMPDEST PUSH1 0x1F DUP2 GT PUSH2 0x1519 JUMPI JUMPDEST POP DUP1 PUSH1 0x20 PUSH1 0x1F DUP3 GT PUSH1 0x1 EQ PUSH2 0x14AB JUMPI PUSH1 0x0 SWAP2 PUSH2 0x14A0 JUMPI JUMPDEST POP DUP2 PUSH1 0x1 SHL SWAP2 PUSH1 0x0 NOT SWAP1 PUSH1 0x3 SHL SHR NOT AND OR PUSH1 0x1 DUP8 ADD SSTORE JUMPDEST DUP1 MLOAD SWAP1 PUSH1 0x1 PUSH1 0x1 PUSH1 0x40 SHL SUB DUP3 GT PUSH2 0x67F JUMPI DUP2 SWAP1 PUSH2 0xD07 PUSH1 0x2 DUP10 ADD SLOAD PUSH2 0x2481 JUMP JUMPDEST PUSH1 0x1F DUP2 GT PUSH2 0x144D JUMPI JUMPDEST POP PUSH1 0x20 SWAP1 PUSH1 0x1F DUP4 GT PUSH1 0x1 EQ PUSH2 0x13DB JUMPI PUSH1 0x0 SWAP3 PUSH2 0x13D0 JUMPI JUMPDEST POP POP DUP2 PUSH1 0x1 SHL SWAP2 PUSH1 0x0 NOT SWAP1 PUSH1 0x3 SHL SHR NOT AND OR PUSH1 0x2 DUP7 ADD SSTORE JUMPDEST PUSH1 0x44 CALLDATALOAD PUSH1 0x3 DUP7 ADD SSTORE PUSH1 0x64 CALLDATALOAD PUSH1 0x4 DUP7 ADD SSTORE DUP1 MLOAD SWAP1 PUSH1 0x1 PUSH1 0x1 PUSH1 0x40 SHL SUB DUP3 GT PUSH2 0x67F JUMPI DUP2 SWAP1 PUSH2 0xD6F PUSH1 0x7 DUP9 ADD SLOAD PUSH2 0x2481 JUMP JUMPDEST PUSH1 0x1F DUP2 GT PUSH2 0x137D JUMPI JUMPDEST POP PUSH1 0x20 SWAP1 PUSH1 0x1F DUP4 GT PUSH1 0x1 EQ PUSH2 0x130B JUMPI PUSH1 0x0 SWAP3 PUSH2 0x1300 JUMPI JUMPDEST POP POP DUP2 PUSH1 0x1 SHL SWAP2 PUSH1 0x0 NOT SWAP1 PUSH1 0x3 SHL SHR NOT AND OR PUSH1 0x7 DUP6 ADD SSTORE JUMPDEST PUSH1 0x8 DUP5 ADD PUSH2 0xDB6 PUSH1 0xA4 CALLDATALOAD PUSH2 0x25DD JUMP JUMPDEST PUSH1 0xFF NOT DUP2 SLOAD AND PUSH1 0xFF PUSH1 0xA4 CALLDATALOAD AND OR SWAP1 SSTORE DUP1 MLOAD SWAP1 PUSH1 0x1 PUSH1 0x1 PUSH1 0x40 SHL SUB DUP3 GT PUSH2 0x67F JUMPI DUP2 SWAP1 PUSH2 0xDE5 PUSH1 0xC DUP8 ADD SLOAD PUSH2 0x2481 JUMP JUMPDEST PUSH1 0x1F DUP2 GT PUSH2 0x12AD JUMPI JUMPDEST POP PUSH1 0x20 SWAP1 PUSH1 0x1F DUP4 GT PUSH1 0x1 EQ PUSH2 0x123B JUMPI PUSH1 0x0 SWAP3 PUSH2 0x1230 JUMPI JUMPDEST POP POP DUP2 PUSH1 0x1 SHL SWAP2 PUSH1 0x0 NOT SWAP1 PUSH1 0x3 SHL SHR NOT AND OR PUSH1 0xC DUP5 ADD SSTORE JUMPDEST DUP1 MLOAD SWAP1 PUSH1 0x1 PUSH1 0x1 PUSH1 0x40 SHL SUB DUP3 GT PUSH2 0x67F JUMPI PUSH2 0xE3B PUSH1 0xD DUP6 ADD SLOAD PUSH2 0x2481 JUMP JUMPDEST PUSH1 0x1F DUP2 GT PUSH2 0x11E9 JUMPI JUMPDEST POP PUSH1 0x20 SWAP1 PUSH1 0x1F DUP4 GT PUSH1 0x1 EQ PUSH2 0x1176 JUMPI PUSH1 0xA SWAP4 SWAP3 SWAP2 PUSH1 0x0 SWAP2 DUP4 PUSH2 0x116B JUMPI JUMPDEST POP POP DUP2 PUSH1 0x1 SHL SWAP2 PUSH1 0x0 NOT SWAP1 PUSH1 0x3 SHL SHR NOT AND OR PUSH1 0xD DUP5 ADD SSTORE JUMPDEST PUSH1 0xE DUP4 ADD DUP1 SLOAD PUSH1 0xFF NOT AND SWAP1 SSTORE MLOAD SWAP2 ADD SSTORE PUSH2 0xE94 PUSH1 0xA4 CALLDATALOAD PUSH2 0x25DD JUMP JUMPDEST PUSH1 0x3 PUSH1 0xA4 CALLDATALOAD EQ PUSH2 0xEF9 JUMPI JUMPDEST PUSH1 0x20 DUP4 DUP4 PUSH1 0x1 PUSH1 0x2 SLOAD ADD PUSH1 0x2 SSTORE DUP2 PUSH32 0x825FB10F7650ED27414D6F86ACDF7D5946927D9B25001F045F1A2435DEEC02FE PUSH2 0xEE3 PUSH1 0x40 MLOAD SWAP4 PUSH1 0x40 DUP6 MSTORE PUSH1 0x40 DUP6 ADD SWAP1 PUSH2 0x259D JUMP JUMPDEST SWAP3 PUSH1 0x44 CALLDATALOAD DUP7 DUP3 ADD MSTORE DUP1 CALLER SWAP5 SUB SWAP1 LOG3 PUSH1 0x40 MLOAD SWAP1 DUP2 MSTORE RETURN JUMPDEST SWAP1 SWAP2 PUSH1 0x0 SWAP2 SWAP1 DUP3 JUMPDEST DUP6 MLOAD DUP5 LT ISZERO PUSH2 0x10FD JUMPI DUP2 PUSH1 0x0 MSTORE PUSH1 0xB PUSH1 0x20 MSTORE PUSH1 0x40 PUSH1 0x0 KECCAK256 PUSH2 0xF22 DUP6 DUP9 PUSH2 0x2841 JUMP JUMPDEST MLOAD SWAP1 PUSH2 0xF2E DUP7 DUP7 PUSH2 0x2841 JUMP JUMPDEST MLOAD PUSH1 0x40 MLOAD SWAP3 DUP4 PUSH1 0x80 DUP2 ADD LT PUSH1 0x1 PUSH1 0x1 PUSH1 0x40 SHL SUB PUSH1 0x80 DUP7 ADD GT OR PUSH2 0x67F JUMPI PUSH1 0x80 DUP5 ADD PUSH1 0x40 MSTORE DUP4 MSTORE PUSH1 0x20 DUP4 ADD MSTORE PUSH1 0x0 PUSH1 0x40 DUP4 ADD MSTORE PUSH1 0x0 PUSH1 0x60 DUP4 ADD MSTORE DUP1 SLOAD PUSH1 0x1 PUSH1 0x40 SHL DUP2 LT ISZERO PUSH2 0x67F JUMPI PUSH2 0xF84 SWAP2 PUSH1 0x1 DUP3 ADD DUP2 SSTORE PUSH2 0x2613 JUMP JUMPDEST SWAP2 SWAP1 SWAP2 PUSH2 0x669 JUMPI DUP1 MLOAD DUP1 MLOAD SWAP1 PUSH1 0x1 PUSH1 0x1 PUSH1 0x40 SHL SUB DUP3 GT PUSH2 0x67F JUMPI PUSH2 0xFA8 DUP5 SLOAD PUSH2 0x2481 JUMP JUMPDEST PUSH1 0x1F DUP2 GT PUSH2 0x10B9 JUMPI JUMPDEST POP PUSH1 0x20 SWAP1 PUSH1 0x1F DUP4 GT PUSH1 0x1 EQ PUSH2 0x1043 JUMPI PUSH2 0x1032 SWAP6 SWAP4 DUP4 PUSH2 0x102C SWAP7 SWAP5 PUSH1 0x3 SWAP5 PUSH1 0x60 SWAP5 PUSH1 0x0 SWAP3 PUSH2 0x1038 JUMPI JUMPDEST POP POP DUP2 PUSH1 0x1 SHL SWAP2 PUSH1 0x0 NOT SWAP1 DUP7 SHL SHR NOT AND OR DUP5 SSTORE JUMPDEST PUSH1 0x20 DUP2 ADD MLOAD PUSH1 0x1 DUP6 ADD SSTORE PUSH2 0x1016 PUSH1 0x40 DUP3 ADD MLOAD ISZERO ISZERO PUSH1 0x2 DUP7 ADD SWAP1 PUSH1 0xFF DUP1 NOT DUP4 SLOAD AND SWAP2 ISZERO ISZERO AND OR SWAP1 SSTORE JUMP JUMPDEST ADD MLOAD SWAP2 ADD SSTORE PUSH2 0x1025 DUP7 DUP7 PUSH2 0x2841 JUMP JUMPDEST MLOAD SWAP1 PUSH2 0x2855 JUMP JUMPDEST SWAP4 PUSH2 0x2832 JUMP JUMPDEST SWAP3 PUSH2 0xF01 JUMP JUMPDEST ADD MLOAD SWAP1 POP DUP15 DUP1 PUSH2 0xFD9 JUMP JUMPDEST SWAP1 DUP5 PUSH1 0x0 MSTORE PUSH1 0x20 PUSH1 0x0 KECCAK256 SWAP2 PUSH1 0x0 JUMPDEST PUSH1 0x1F NOT DUP6 AND DUP2 LT PUSH2 0x10A1 JUMPI POP SWAP4 PUSH1 0x1 DUP5 PUSH1 0x3 SWAP5 PUSH1 0x60 SWAP5 PUSH2 0x1032 SWAP11 SWAP9 PUSH2 0x102C SWAP11 SWAP9 PUSH1 0x1F NOT DUP2 AND LT PUSH2 0x1089 JUMPI JUMPDEST POP POP POP DUP2 SHL ADD DUP5 SSTORE PUSH2 0xFED JUMP JUMPDEST ADD MLOAD PUSH1 0x0 NOT DUP4 DUP9 SHL PUSH1 0xF8 AND SHR NOT AND SWAP1 SSTORE DUP15 DUP1 DUP1 PUSH2 0x107C JUMP JUMPDEST SWAP2 SWAP3 PUSH1 0x20 PUSH1 0x1 DUP2 SWAP3 DUP7 DUP6 ADD MLOAD DUP2 SSTORE ADD SWAP5 ADD SWAP3 ADD PUSH2 0x1051 JUMP JUMPDEST DUP5 PUSH1 0x0 MSTORE PUSH1 0x20 PUSH1 0x0 KECCAK256 PUSH1 0x1F DUP5 ADD PUSH1 0x5 SHR DUP2 ADD PUSH1 0x20 DUP6 LT PUSH2 0x10F6 JUMPI JUMPDEST PUSH1 0x1F DUP4 ADD PUSH1 0x5 SHR DUP3 ADD DUP2 LT PUSH2 0x10EA JUMPI POP POP PUSH2 0xFB1 JUMP JUMPDEST PUSH1 0x0 DUP2 SSTORE PUSH1 0x1 ADD PUSH2 0x10D4 JUMP JUMPDEST POP DUP1 PUSH2 0x10D4 JUMP JUMPDEST SWAP3 POP SWAP3 SWAP4 POP POP PUSH1 0x44 CALLDATALOAD SUB PUSH2 0x1112 JUMPI DUP2 DUP4 PUSH2 0xE9F JUMP JUMPDEST PUSH1 0x40 MLOAD PUSH3 0x461BCD PUSH1 0xE5 SHL DUP2 MSTORE PUSH1 0x20 PUSH1 0x4 DUP3 ADD MSTORE PUSH1 0x2B PUSH1 0x24 DUP3 ADD MSTORE PUSH32 0x4D696C6573746F6E6520616D6F756E7473206D7573742073756D20746F207461 PUSH1 0x44 DUP3 ADD MSTORE PUSH11 0x1C99D95D08185B5BDD5B9D PUSH1 0xAA SHL PUSH1 0x64 DUP3 ADD MSTORE PUSH1 0x84 SWAP1 REVERT JUMPDEST ADD MLOAD SWAP1 POP DUP10 DUP1 PUSH2 0xE61 JUMP JUMPDEST SWAP1 PUSH1 0xD DUP6 ADD PUSH1 0x0 MSTORE PUSH1 0x20 PUSH1 0x0 KECCAK256 SWAP2 PUSH1 0x0 JUMPDEST PUSH1 0x1F NOT DUP6 AND DUP2 LT PUSH2 0x11D1 JUMPI POP SWAP2 DUP4 SWAP2 PUSH1 0x1 SWAP4 PUSH1 0xA SWAP7 SWAP6 PUSH1 0x1F NOT DUP2 AND LT PUSH2 0x11B8 JUMPI JUMPDEST POP POP POP DUP2 SHL ADD PUSH1 0xD DUP5 ADD SSTORE PUSH2 0xE79 JUMP JUMPDEST ADD MLOAD PUSH1 0x0 NOT PUSH1 0xF8 DUP5 PUSH1 0x3 SHL AND SHR NOT AND SWAP1 SSTORE DUP10 DUP1 DUP1 PUSH2 0x11A8 JUMP JUMPDEST SWAP2 SWAP3 PUSH1 0x20 PUSH1 0x1 DUP2 SWAP3 DUP7 DUP6 ADD MLOAD DUP2 SSTORE ADD SWAP5 ADD SWAP3 ADD PUSH2 0x1187 JUMP JUMPDEST PUSH1 0xD DUP6 ADD PUSH1 0x0 MSTORE PUSH1 0x20 PUSH1 0x0 KECCAK256 PUSH1 0x1F DUP5 ADD PUSH1 0x5 SHR DUP2 ADD PUSH1 0x20 DUP6 LT PUSH2 0x1229 JUMPI JUMPDEST PUSH1 0x1F DUP4 ADD PUSH1 0x5 SHR DUP3 ADD DUP2 LT PUSH2 0x121D JUMPI POP POP PUSH2 0xE44 JUMP JUMPDEST PUSH1 0x0 DUP2 SSTORE PUSH1 0x1 ADD PUSH2 0x1207 JUMP JUMPDEST POP DUP1 PUSH2 0x1207 JUMP JUMPDEST ADD MLOAD SWAP1 POP DUP10 DUP1 PUSH2 0xE05 JUMP JUMPDEST SWAP3 POP PUSH1 0xC DUP7 ADD PUSH1 0x0 MSTORE PUSH1 0x20 PUSH1 0x0 KECCAK256 SWAP1 PUSH1 0x0 SWAP4 JUMPDEST PUSH1 0x1F NOT DUP5 AND DUP6 LT PUSH2 0x1292 JUMPI PUSH1 0x1 SWAP5 POP DUP4 PUSH1 0x1F NOT DUP2 AND LT PUSH2 0x1279 JUMPI JUMPDEST POP POP POP DUP2 SHL ADD PUSH1 0xC DUP5 ADD SSTORE PUSH2 0xE1D JUMP JUMPDEST ADD MLOAD PUSH1 0x0 NOT PUSH1 0xF8 DUP5 PUSH1 0x3 SHL AND SHR NOT AND SWAP1 SSTORE DUP10 DUP1 DUP1 PUSH2 0x1269 JUMP JUMPDEST DUP2 DUP2 ADD MLOAD DUP4 SSTORE PUSH1 0x20 SWAP5 DUP6 ADD SWAP5 PUSH1 0x1 SWAP1 SWAP4 ADD SWAP3 SWAP1 SWAP2 ADD SWAP1 PUSH2 0x124E JUMP JUMPDEST SWAP1 SWAP2 POP PUSH1 0xC DUP7 ADD PUSH1 0x0 MSTORE PUSH1 0x20 PUSH1 0x0 KECCAK256 PUSH1 0x1F DUP5 ADD PUSH1 0x5 SHR DUP2 ADD PUSH1 0x20 DUP6 LT PUSH2 0x12F9 JUMPI JUMPDEST SWAP1 DUP5 SWAP4 SWAP3 SWAP2 JUMPDEST PUSH1 0x1F DUP4 ADD PUSH1 0x5 SHR DUP3 ADD DUP2 LT PUSH2 0x12EA JUMPI POP POP PUSH2 0xDEE JUMP JUMPDEST PUSH1 0x0 DUP2 SSTORE DUP6 SWAP5 POP PUSH1 0x1 ADD PUSH2 0x12D4 JUMP JUMPDEST POP DUP1 PUSH2 0x12CE JUMP JUMPDEST ADD MLOAD SWAP1 POP DUP11 DUP1 PUSH2 0xD8F JUMP JUMPDEST SWAP3 POP PUSH1 0x7 DUP8 ADD PUSH1 0x0 MSTORE PUSH1 0x20 PUSH1 0x0 KECCAK256 SWAP1 PUSH1 0x0 SWAP4 JUMPDEST PUSH1 0x1F NOT DUP5 AND DUP6 LT PUSH2 0x1362 JUMPI PUSH1 0x1 SWAP5 POP DUP4 PUSH1 0x1F NOT DUP2 AND LT PUSH2 0x1349 JUMPI JUMPDEST POP POP POP DUP2 SHL ADD PUSH1 0x7 DUP6 ADD SSTORE PUSH2 0xDA7 JUMP JUMPDEST ADD MLOAD PUSH1 0x0 NOT PUSH1 0xF8 DUP5 PUSH1 0x3 SHL AND SHR NOT AND SWAP1 SSTORE DUP11 DUP1 DUP1 PUSH2 0x1339 JUMP JUMPDEST DUP2 DUP2 ADD MLOAD DUP4 SSTORE PUSH1 0x20 SWAP5 DUP6 ADD SWAP5 PUSH1 0x1 SWAP1 SWAP4 ADD SWAP3 SWAP1 SWAP2 ADD SWAP1 PUSH2 0x131E JUMP JUMPDEST SWAP1 SWAP2 POP PUSH1 0x7 DUP8 ADD PUSH1 0x0 MSTORE PUSH1 0x20 PUSH1 0x0 KECCAK256 PUSH1 0x1F DUP5 ADD PUSH1 0x5 SHR DUP2 ADD PUSH1 0x20 DUP6 LT PUSH2 0x13C9 JUMPI JUMPDEST SWAP1 DUP5 SWAP4 SWAP3 SWAP2 JUMPDEST PUSH1 0x1F DUP4 ADD PUSH1 0x5 SHR DUP3 ADD DUP2 LT PUSH2 0x13BA JUMPI POP POP PUSH2 0xD78 JUMP JUMPDEST PUSH1 0x0 DUP2 SSTORE DUP6 SWAP5 POP PUSH1 0x1 ADD PUSH2 0x13A4 JUMP JUMPDEST POP DUP1 PUSH2 0x139E JUMP JUMPDEST ADD MLOAD SWAP1 POP DUP12 DUP1 PUSH2 0xD27 JUMP JUMPDEST SWAP3 POP PUSH1 0x2 DUP9 ADD PUSH1 0x0 MSTORE PUSH1 0x20 PUSH1 0x0 KECCAK256 SWAP1 PUSH1 0x0 SWAP4 JUMPDEST PUSH1 0x1F NOT DUP5 AND DUP6 LT PUSH2 0x1432 JUMPI PUSH1 0x1 SWAP5 POP DUP4 PUSH1 0x1F NOT DUP2 AND LT PUSH2 0x1419 JUMPI JUMPDEST POP POP POP DUP2 SHL ADD PUSH1 0x2 DUP7 ADD SSTORE PUSH2 0xD3F JUMP JUMPDEST ADD MLOAD PUSH1 0x0 NOT PUSH1 0xF8 DUP5 PUSH1 0x3 SHL AND SHR NOT AND SWAP1 SSTORE DUP12 DUP1 DUP1 PUSH2 0x1409 JUMP JUMPDEST DUP2 DUP2 ADD MLOAD DUP4 SSTORE PUSH1 0x20 SWAP5 DUP6 ADD SWAP5 PUSH1 0x1 SWAP1 SWAP4 ADD SWAP3 SWAP1 SWAP2 ADD SWAP1 PUSH2 0x13EE JUMP JUMPDEST SWAP1 SWAP2 POP PUSH1 0x2 DUP9 ADD PUSH1 0x0 MSTORE PUSH1 0x20 PUSH1 0x0 KECCAK256 PUSH1 0x1F DUP5 ADD PUSH1 0x5 SHR DUP2 ADD PUSH1 0x20 DUP6 LT PUSH2 0x1499 JUMPI JUMPDEST SWAP1 DUP5 SWAP4 SWAP3 SWAP2 JUMPDEST PUSH1 0x1F DUP4 ADD PUSH1 0x5 SHR DUP3 ADD DUP2 LT PUSH2 0x148A JUMPI POP POP PUSH2 0xD10 JUMP JUMPDEST PUSH1 0x0 DUP2 SSTORE DUP6 SWAP5 POP PUSH1 0x1 ADD PUSH2 0x1474 JUMP JUMPDEST POP DUP1 PUSH2 0x146E JUMP JUMPDEST SWAP1 POP DUP10 ADD MLOAD DUP13 PUSH2 0xCD0 JUMP JUMPDEST SWAP2 POP PUSH1 0x1 DUP9 ADD PUSH1 0x0 MSTORE PUSH1 0x20 PUSH1 0x0 KECCAK256 PUSH1 0x0 SWAP3 JUMPDEST DUP12 PUSH1 0x1F NOT DUP5 AND DUP6 LT PUSH2 0x1502 JUMPI POP PUSH1 0x1 SWAP4 POP DUP3 PUSH1 0x1F NOT DUP2 AND LT PUSH2 0x14E9 JUMPI JUMPDEST POP POP DUP2 SHL ADD PUSH1 0x1 DUP8 ADD SSTORE PUSH2 0xCE7 JUMP JUMPDEST DUP12 ADD MLOAD PUSH1 0x0 NOT PUSH1 0xF8 DUP5 PUSH1 0x3 SHL AND SHR NOT AND SWAP1 SSTORE DUP13 DUP1 PUSH2 0x14DA JUMP JUMPDEST DUP2 ADD MLOAD DUP3 SSTORE PUSH1 0x20 SWAP4 DUP5 ADD SWAP4 PUSH1 0x1 SWAP1 SWAP3 ADD SWAP2 ADD PUSH2 0x14BD JUMP JUMPDEST PUSH1 0x1 DUP9 ADD PUSH1 0x0 MSTORE PUSH1 0x20 PUSH1 0x0 KECCAK256 PUSH1 0x1F DUP4 ADD PUSH1 0x5 SHR DUP2 ADD PUSH1 0x20 DUP5 LT PUSH2 0x1559 JUMPI JUMPDEST PUSH1 0x1F DUP4 ADD PUSH1 0x5 SHR DUP3 ADD DUP2 LT PUSH2 0x154D JUMPI POP POP PUSH2 0xCB9 JUMP JUMPDEST PUSH1 0x0 DUP2 SSTORE PUSH1 0x1 ADD PUSH2 0x1537 JUMP JUMPDEST POP DUP1 PUSH2 0x1537 JUMP JUMPDEST DUP8 MLOAD ISZERO PUSH2 0x15CB JUMPI DUP8 MLOAD DUP6 MLOAD EQ PUSH2 0xC69 JUMPI PUSH1 0x40 MLOAD PUSH3 0x461BCD PUSH1 0xE5 SHL DUP2 MSTORE PUSH1 0x20 PUSH1 0x4 DUP3 ADD MSTORE PUSH1 0x2D PUSH1 0x24 DUP3 ADD MSTORE PUSH32 0x4D696C6573746F6E65206465736372697074696F6E7320616E6420616D6F756E PUSH1 0x44 DUP3 ADD MSTORE PUSH13 0xE8E640DAEAE6E840DAC2E8C6D PUSH1 0x9B SHL PUSH1 0x64 DUP3 ADD MSTORE PUSH1 0x84 SWAP1 REVERT JUMPDEST PUSH1 0x40 MLOAD PUSH3 0x461BCD PUSH1 0xE5 SHL DUP2 MSTORE PUSH1 0x20 PUSH1 0x4 DUP3 ADD MSTORE PUSH1 0x2F PUSH1 0x24 DUP3 ADD MSTORE PUSH32 0x4D696C6573746F6E657320726571756972656420666F72206D696C6573746F6E PUSH1 0x44 DUP3 ADD MSTORE PUSH15 0x652D62617365642066756E64696E67 PUSH1 0x88 SHL PUSH1 0x64 DUP3 ADD MSTORE PUSH1 0x84 SWAP1 REVERT JUMPDEST PUSH1 0x40 MLOAD PUSH3 0x461BCD PUSH1 0xE5 SHL DUP2 MSTORE PUSH1 0x20 PUSH1 0x4 DUP3 ADD MSTORE PUSH1 0x14 PUSH1 0x24 DUP3 ADD MSTORE PUSH20 0x4E616D652063616E6E6F7420626520656D707479 PUSH1 0x60 SHL PUSH1 0x44 DUP3 ADD MSTORE PUSH1 0x64 SWAP1 REVERT JUMPDEST PUSH1 0x40 MLOAD PUSH3 0x461BCD PUSH1 0xE5 SHL DUP2 MSTORE PUSH1 0x20 PUSH1 0x4 DUP3 ADD MSTORE PUSH1 0x1E PUSH1 0x24 DUP3 ADD MSTORE PUSH32 0x446561646C696E65206D75737420626520696E20746865206675747572650000 PUSH1 0x44 DUP3 ADD MSTORE PUSH1 0x64 SWAP1 REVERT JUMPDEST PUSH1 0x40 MLOAD PUSH3 0x461BCD PUSH1 0xE5 SHL DUP2 MSTORE PUSH1 0x20 PUSH1 0x4 DUP3 ADD MSTORE PUSH1 0x24 DUP1 DUP3 ADD MSTORE PUSH32 0x54617267657420616D6F756E74206D7573742062652067726561746572207468 PUSH1 0x44 DUP3 ADD MSTORE PUSH4 0x616E203 PUSH1 0xE4 SHL PUSH1 0x64 DUP3 ADD MSTORE PUSH1 0x84 SWAP1 REVERT JUMPDEST DUP2 CALLDATALOAD DUP2 MSTORE PUSH1 0x20 SWAP2 DUP3 ADD SWAP2 ADD PUSH2 0xC04 JUMP JUMPDEST CALLVALUE PUSH2 0x2D2 JUMPI PUSH1 0x20 CALLDATASIZE PUSH1 0x3 NOT ADD SLT PUSH2 0x2D2 JUMPI PUSH1 0x4 CALLDATALOAD PUSH2 0x1726 PUSH2 0x27DA JUMP JUMPDEST PUSH1 0x32 DUP2 GT PUSH2 0x1733 JUMPI PUSH1 0x6 SSTORE STOP JUMPDEST PUSH1 0x40 MLOAD PUSH3 0x461BCD PUSH1 0xE5 SHL DUP2 MSTORE PUSH1 0x20 PUSH1 0x4 DUP3 ADD MSTORE PUSH1 0x14 PUSH1 0x24 DUP3 ADD MSTORE PUSH20 0x4665652063616E6E6F7420657863656564203525 PUSH1 0x60 SHL PUSH1 0x44 DUP3 ADD MSTORE PUSH1 0x64 SWAP1 REVERT JUMPDEST CALLVALUE PUSH2 0x2D2 JUMPI PUSH1 0x0 CALLDATASIZE PUSH1 0x3 NOT ADD SLT PUSH2 0x2D2 JUMPI PUSH1 0x20 PUSH1 0x5 SLOAD PUSH1 0x40 MLOAD SWAP1 DUP2 MSTORE RETURN JUMPDEST CALLVALUE PUSH2 0x2D2 JUMPI PUSH1 0x0 CALLDATASIZE PUSH1 0x3 NOT ADD SLT PUSH2 0x2D2 JUMPI PUSH1 0x1 SLOAD PUSH1 0x40 MLOAD PUSH1 0x1 PUSH1 0x1 PUSH1 0xA0 SHL SUB SWAP1 SWAP2 AND DUP2 MSTORE PUSH1 0x20 SWAP1 RETURN JUMPDEST CALLVALUE PUSH2 0x2D2 JUMPI PUSH1 0x0 CALLDATASIZE PUSH1 0x3 NOT ADD SLT PUSH2 0x2D2 JUMPI PUSH1 0x20 PUSH1 0x3 SLOAD PUSH1 0x40 MLOAD SWAP1 DUP2 MSTORE RETURN JUMPDEST CALLVALUE PUSH2 0x2D2 JUMPI PUSH1 0x40 CALLDATASIZE PUSH1 0x3 NOT ADD SLT PUSH2 0x2D2 JUMPI PUSH2 0x17ED PUSH2 0x2645 JUMP JUMPDEST PUSH1 0x4 CALLDATALOAD PUSH1 0x0 MSTORE PUSH1 0xA PUSH1 0x20 MSTORE PUSH1 0x40 PUSH1 0x0 KECCAK256 SWAP1 PUSH1 0x1 DUP1 PUSH1 0xA0 SHL SUB AND PUSH1 0x0 MSTORE PUSH1 0x20 MSTORE PUSH1 0x20 PUSH1 0xFF PUSH1 0x40 PUSH1 0x0 KECCAK256 SLOAD AND PUSH1 0x40 MLOAD SWAP1 ISZERO ISZERO DUP2 MSTORE RETURN JUMPDEST CALLVALUE PUSH2 0x2D2 JUMPI PUSH1 0x0 CALLDATASIZE PUSH1 0x3 NOT ADD SLT PUSH2 0x2D2 JUMPI PUSH2 0x183A PUSH2 0x27DA JUMP JUMPDEST PUSH1 0x1 DUP1 SLOAD PUSH1 0x1 PUSH1 0x1 PUSH1 0xA0 SHL SUB NOT DUP2 AND SWAP1 SWAP2 SSTORE PUSH1 0x0 SWAP1 PUSH1 0x1 PUSH1 0x1 PUSH1 0xA0 SHL SUB AND PUSH32 0x8BE0079C531659141344CD1FD0A4F28419497F9722A3DAAFE3B4186F6B6457E0 DUP3 DUP1 LOG3 STOP JUMPDEST CALLVALUE PUSH2 0x2D2 JUMPI PUSH1 0x0 CALLDATASIZE PUSH1 0x3 NOT ADD SLT PUSH2 0x2D2 JUMPI PUSH1 0x20 PUSH1 0x2 SLOAD PUSH1 0x40 MLOAD SWAP1 DUP2 MSTORE RETURN JUMPDEST CALLVALUE PUSH2 0x2D2 JUMPI PUSH1 0x20 CALLDATASIZE PUSH1 0x3 NOT ADD SLT PUSH2 0x2D2 JUMPI PUSH1 0x4 CALLDATALOAD PUSH1 0x2 SLOAD DUP2 LT PUSH2 0x18BE SWAP1 PUSH2 0x2862 JUMP JUMPDEST PUSH1 0x0 MSTORE PUSH1 0x7 PUSH1 0x20 MSTORE PUSH1 0x40 PUSH1 0x0 KECCAK256 PUSH1 0x1 PUSH1 0xA0 SHL PUSH1 0x1 SWAP1 SUB DUP2 SLOAD AND PUSH1 0x3 DUP3 ADD SLOAD SWAP2 PUSH1 0x4 DUP2 ADD SLOAD SWAP3 PUSH1 0x5 DUP3 ADD SLOAD SWAP1 PUSH1 0x6 DUP4 ADD SLOAD PUSH1 0xFF AND SWAP1 PUSH1 0x8 DUP5 ADD SLOAD PUSH1 0xFF AND SWAP4 PUSH1 0x9 DUP2 ADD SLOAD SWAP1 PUSH1 0xA DUP2 ADD SLOAD SWAP3 PUSH1 0xB DUP3 ADD SLOAD SWAP5 PUSH1 0xE DUP4 ADD SLOAD PUSH1 0xFF AND SWAP7 PUSH1 0x1 DUP5 ADD PUSH2 0x1923 SWAP1 PUSH2 0x24F7 JUMP JUMPDEST SWAP11 PUSH2 0x1930 PUSH1 0x2 DUP7 ADD PUSH2 0x24F7 JUMP JUMPDEST SWAP5 PUSH1 0x7 ADD PUSH2 0x193D SWAP1 PUSH2 0x24F7 JUMP JUMPDEST SWAP5 PUSH1 0x40 MLOAD SWAP13 DUP14 SWAP13 DUP14 MSTORE DUP13 PUSH2 0x1A0 PUSH1 0x20 DUP2 SWAP3 ADD MSTORE DUP14 ADD PUSH2 0x195B SWAP2 PUSH2 0x259D JUMP JUMPDEST DUP13 DUP2 SUB PUSH1 0x40 DUP15 ADD MSTORE PUSH2 0x196C SWAP2 PUSH2 0x259D JUMP JUMPDEST SWAP4 PUSH1 0x60 DUP13 ADD MSTORE PUSH1 0x80 DUP12 ADD MSTORE PUSH1 0xA0 DUP11 ADD MSTORE ISZERO ISZERO PUSH1 0xC0 DUP10 ADD MSTORE DUP8 DUP2 SUB PUSH1 0xE0 DUP10 ADD MSTORE PUSH2 0x1994 SWAP2 PUSH2 0x259D JUMP JUMPDEST SWAP5 PUSH2 0x199E DUP2 PUSH2 0x25DD JUMP JUMPDEST PUSH2 0x100 DUP8 ADD MSTORE PUSH2 0x120 DUP7 ADD MSTORE PUSH2 0x140 DUP6 ADD MSTORE PUSH2 0x160 DUP5 ADD MSTORE PUSH2 0x19BF DUP2 PUSH2 0x25DD JUMP JUMPDEST PUSH2 0x180 DUP4 ADD MSTORE SUB SWAP1 RETURN JUMPDEST CALLVALUE PUSH2 0x2D2 JUMPI PUSH1 0x20 DUP1 PUSH1 0x3 NOT CALLDATASIZE ADD SLT PUSH2 0x2D2 JUMPI PUSH1 0x4 CALLDATALOAD SWAP1 PUSH2 0x19E7 PUSH2 0x28AE JUMP JUMPDEST PUSH1 0x2 SWAP1 PUSH2 0x19F6 DUP3 SLOAD DUP5 LT PUSH2 0x2862 JUMP JUMPDEST DUP3 PUSH1 0x0 MSTORE PUSH1 0x7 DUP2 MSTORE PUSH1 0x40 PUSH1 0x0 KECCAK256 PUSH1 0xA DUP2 ADD SWAP1 DUP2 SLOAD DUP1 ISZERO PUSH2 0x1C13 JUMPI DUP6 PUSH1 0x0 MSTORE PUSH1 0xA DUP5 MSTORE PUSH1 0x40 PUSH1 0x0 KECCAK256 CALLER PUSH1 0x0 MSTORE DUP5 MSTORE PUSH1 0xFF SWAP5 DUP6 PUSH1 0x40 PUSH1 0x0 KECCAK256 SLOAD AND PUSH2 0x1BCE JUMPI PUSH1 0x0 SWAP6 DUP8 PUSH1 0x0 MSTORE PUSH1 0x8 DUP7 MSTORE PUSH1 0x40 PUSH1 0x0 KECCAK256 CALLER PUSH1 0x0 MSTORE DUP7 MSTORE PUSH1 0x40 PUSH1 0x0 KECCAK256 DUP1 SLOAD SWAP2 PUSH2 0x1A59 DUP4 PUSH2 0x26D9 JUMP JUMPDEST SWAP4 PUSH2 0x1A67 PUSH1 0x40 MLOAD SWAP6 DUP7 PUSH2 0x24D6 JUMP JUMPDEST DUP4 DUP6 MSTORE PUSH1 0x0 SWAP3 DUP4 MSTORE DUP9 DUP4 KECCAK256 SWAP2 DUP10 DUP1 DUP8 ADD JUMPDEST DUP7 DUP7 LT PUSH2 0x1B93 JUMPI POP POP POP POP POP POP POP PUSH1 0x0 JUMPDEST DUP2 MLOAD DUP2 LT ISZERO PUSH2 0x1B88 JUMPI PUSH1 0x40 PUSH2 0x1A9E DUP3 DUP5 PUSH2 0x2841 JUMP JUMPDEST MLOAD ADD MLOAD ISZERO PUSH2 0x1AB4 JUMPI PUSH2 0x1AAF SWAP1 PUSH2 0x2832 JUMP JUMPDEST PUSH2 0x1A89 JUMP JUMPDEST POP POP SWAP1 SWAP2 SWAP3 SWAP4 POP PUSH1 0x1 JUMPDEST ISZERO PUSH2 0x1B34 JUMPI PUSH1 0x0 NOT DUP2 ADD SWAP1 DUP2 GT PUSH2 0x695 JUMPI PUSH1 0xB SWAP3 SSTORE ADD DUP1 SLOAD SWAP1 PUSH1 0x1 DUP3 ADD DUP1 SWAP3 GT PUSH2 0x695 JUMPI SSTORE DUP2 PUSH1 0x0 MSTORE PUSH1 0xA DUP2 MSTORE PUSH1 0x40 PUSH1 0x0 KECCAK256 SWAP1 CALLER PUSH1 0x0 MSTORE MSTORE PUSH1 0x40 PUSH1 0x0 KECCAK256 PUSH1 0x1 PUSH1 0xFF NOT DUP3 SLOAD AND OR SWAP1 SSTORE CALLER SWAP1 PUSH32 0xCF82E72EF33AE47596B71A21E67AE6AFD84285F4BEA8089162CA367DCF2F352F PUSH1 0x0 DUP1 LOG3 PUSH1 0x1 PUSH1 0x0 SSTORE STOP JUMPDEST PUSH1 0x40 MLOAD PUSH3 0x461BCD PUSH1 0xE5 SHL DUP2 MSTORE PUSH1 0x4 DUP2 ADD DUP6 SWAP1 MSTORE PUSH1 0x26 PUSH1 0x24 DUP3 ADD MSTORE PUSH32 0x4D757374206265206120636F6E7472696275746F7220746F2072656465656D20 PUSH1 0x44 DUP3 ADD MSTORE PUSH6 0x1C995DD85C99 PUSH1 0xD2 SHL PUSH1 0x64 DUP3 ADD MSTORE PUSH1 0x84 SWAP1 REVERT JUMPDEST POP POP SWAP1 SWAP2 SWAP3 SWAP4 PUSH2 0x1ABE JUMP JUMPDEST PUSH1 0x1 SWAP2 PUSH1 0x3 SWAP2 PUSH1 0x40 MLOAD PUSH2 0x1BA5 DUP2 PUSH2 0x24BB JUMP JUMPDEST DUP8 SLOAD DUP2 MSTORE DUP5 DUP9 ADD SLOAD DUP4 DUP3 ADD MSTORE DUP6 DUP8 DUP10 ADD SLOAD AND ISZERO ISZERO PUSH1 0x40 DUP3 ADD MSTORE DUP2 MSTORE ADD SWAP5 ADD SWAP5 ADD SWAP4 SWAP3 DUP11 SWAP1 PUSH2 0x1A78 JUMP JUMPDEST PUSH1 0x40 MLOAD PUSH3 0x461BCD PUSH1 0xE5 SHL DUP2 MSTORE PUSH1 0x4 DUP2 ADD DUP7 SWAP1 MSTORE PUSH1 0x17 PUSH1 0x24 DUP3 ADD MSTORE PUSH32 0x416C72656164792072656465656D656420726577617264000000000000000000 PUSH1 0x44 DUP3 ADD MSTORE PUSH1 0x64 SWAP1 REVERT JUMPDEST PUSH1 0x40 MLOAD PUSH3 0x461BCD PUSH1 0xE5 SHL DUP2 MSTORE PUSH1 0x4 DUP2 ADD DUP6 SWAP1 MSTORE PUSH1 0x14 PUSH1 0x24 DUP3 ADD MSTORE PUSH20 0x4E6F207265776172647320617661696C61626C65 PUSH1 0x60 SHL PUSH1 0x44 DUP3 ADD MSTORE PUSH1 0x64 SWAP1 REVERT JUMPDEST CALLVALUE PUSH2 0x2D2 JUMPI PUSH1 0x20 DUP1 PUSH1 0x3 NOT CALLDATASIZE ADD SLT PUSH2 0x2D2 JUMPI PUSH1 0x4 CALLDATALOAD SWAP1 PUSH2 0x1C6D PUSH2 0x28AE JUMP JUMPDEST PUSH2 0x1C7A PUSH1 0x2 SLOAD DUP4 LT PUSH2 0x2862 JUMP JUMPDEST PUSH1 0x0 DUP3 DUP2 MSTORE PUSH1 0x7 DUP3 MSTORE PUSH1 0x40 SWAP1 KECCAK256 SLOAD PUSH1 0x1 PUSH1 0x1 PUSH1 0xA0 SHL SUB SWAP1 DUP2 AND CALLER SUB PUSH2 0x1E72 JUMPI DUP3 PUSH1 0x0 MSTORE PUSH1 0x7 DUP3 MSTORE PUSH1 0x40 PUSH1 0x0 KECCAK256 SWAP1 PUSH1 0x6 DUP3 ADD SWAP2 DUP3 SLOAD SWAP3 PUSH1 0xFF DUP5 AND PUSH2 0x1E2F JUMPI PUSH2 0x1CC6 PUSH1 0x5 DUP4 ADD SLOAD ISZERO ISZERO PUSH2 0x2904 JUMP JUMPDEST PUSH2 0x1CCF DUP3 PUSH2 0x2983 JUMP JUMPDEST SWAP1 DUP2 ISZERO PUSH2 0x1CDC DUP2 ISZERO PUSH2 0x2904 JUMP JUMPDEST PUSH1 0x6 SLOAD SWAP1 DUP2 DUP5 MUL SWAP2 DUP5 DUP4 DIV EQ OR ISZERO PUSH2 0x695 JUMPI PUSH2 0x1CFF PUSH2 0x3E8 PUSH1 0x1 SWAP3 DIV DUP1 SWAP5 PUSH2 0x2946 JUMP JUMPDEST SWAP6 PUSH1 0xFF NOT AND OR SWAP1 SSTORE PUSH1 0x5 SLOAD PUSH1 0x1 DUP2 ADD DUP1 SWAP2 GT PUSH2 0x695 JUMPI PUSH1 0x0 DUP1 DUP1 SWAP4 DUP2 SWAP4 PUSH1 0x5 SSTORE DUP7 PUSH1 0x1 SLOAD AND GAS CALL PUSH2 0x1D2E PUSH2 0x2953 JUMP JUMPDEST POP ISZERO PUSH2 0x1DF4 JUMPI PUSH1 0x0 DUP1 DUP1 DUP1 DUP7 DUP7 DUP7 SLOAD AND GAS CALL PUSH2 0x1D48 PUSH2 0x2953 JUMP JUMPDEST POP ISZERO PUSH2 0x1DAF JUMPI PUSH32 0x6E3C6096795C8298A218B2CFB8BDE42726FF7C9A3D27B4D3BA41AB7F74FEB5FB DUP5 PUSH32 0x1289CF89AAAED53D6590C1B7996BA434EDB31DCBD322D0B88FF0C02F64BBDEEF SWAP6 SWAP5 SWAP4 DUP8 SWAP4 SLOAD AND SWAP4 PUSH1 0x40 MLOAD SWAP1 DUP2 MSTORE LOG3 PUSH1 0x40 MLOAD PUSH1 0x1 DUP2 MSTORE LOG2 PUSH1 0x1 PUSH1 0x0 SSTORE STOP JUMPDEST PUSH1 0x40 MLOAD PUSH3 0x461BCD PUSH1 0xE5 SHL DUP2 MSTORE PUSH1 0x4 DUP2 ADD DUP6 SWAP1 MSTORE PUSH1 0x1A PUSH1 0x24 DUP3 ADD MSTORE PUSH32 0x5472616E7366657220746F2063726561746F72206661696C6564000000000000 PUSH1 0x44 DUP3 ADD MSTORE PUSH1 0x64 SWAP1 REVERT JUMPDEST PUSH1 0x40 MLOAD PUSH3 0x461BCD PUSH1 0xE5 SHL DUP2 MSTORE PUSH1 0x4 DUP2 ADD DUP6 SWAP1 MSTORE PUSH1 0x13 PUSH1 0x24 DUP3 ADD MSTORE PUSH19 0x119959481D1C985B9CD9995C8819985A5B1959 PUSH1 0x6A SHL PUSH1 0x44 DUP3 ADD MSTORE PUSH1 0x64 SWAP1 REVERT JUMPDEST PUSH1 0x64 DUP6 PUSH1 0x40 MLOAD SWAP1 PUSH3 0x461BCD PUSH1 0xE5 SHL DUP3 MSTORE DUP1 PUSH1 0x4 DUP4 ADD MSTORE PUSH1 0x24 DUP3 ADD MSTORE PUSH32 0x46756E6473206861766520616C7265616479206265656E2072656C6561736564 PUSH1 0x44 DUP3 ADD MSTORE REVERT JUMPDEST PUSH1 0x40 MLOAD PUSH3 0x461BCD PUSH1 0xE5 SHL DUP2 MSTORE PUSH1 0x4 DUP2 ADD DUP4 SWAP1 MSTORE PUSH1 0x14 PUSH1 0x24 DUP3 ADD MSTORE PUSH20 0x2737BA1031B0B6B830B4B3B71031B932B0BA37B9 PUSH1 0x61 SHL PUSH1 0x44 DUP3 ADD MSTORE PUSH1 0x64 SWAP1 REVERT JUMPDEST CALLVALUE PUSH2 0x2D2 JUMPI PUSH1 0x40 CALLDATASIZE PUSH1 0x3 NOT ADD SLT PUSH2 0x2D2 JUMPI PUSH2 0x1EC7 PUSH2 0x2645 JUMP JUMPDEST PUSH1 0x4 CALLDATALOAD PUSH1 0x0 MSTORE PUSH1 0x9 PUSH1 0x20 MSTORE PUSH1 0x40 PUSH1 0x0 KECCAK256 SWAP1 PUSH1 0x1 DUP1 PUSH1 0xA0 SHL SUB AND PUSH1 0x0 MSTORE PUSH1 0x20 MSTORE PUSH1 0x20 PUSH1 0xFF PUSH1 0x40 PUSH1 0x0 KECCAK256 SLOAD AND PUSH1 0x40 MLOAD SWAP1 ISZERO ISZERO DUP2 MSTORE RETURN JUMPDEST CALLVALUE PUSH2 0x2D2 JUMPI PUSH1 0x0 CALLDATASIZE PUSH1 0x3 NOT ADD SLT PUSH2 0x2D2 JUMPI PUSH1 0x20 PUSH1 0x4 SLOAD PUSH1 0x40 MLOAD SWAP1 DUP2 MSTORE RETURN JUMPDEST CALLVALUE PUSH2 0x2D2 JUMPI PUSH1 0x20 DUP1 PUSH1 0x3 NOT CALLDATASIZE ADD SLT PUSH2 0x2D2 JUMPI PUSH1 0x4 CALLDATALOAD SWAP1 PUSH2 0x1F37 PUSH2 0x28AE JUMP JUMPDEST PUSH1 0x2 PUSH2 0x1F45 DUP2 SLOAD DUP5 LT PUSH2 0x2862 JUMP JUMPDEST DUP3 PUSH1 0x0 MSTORE PUSH1 0x7 DUP3 MSTORE PUSH1 0x40 PUSH1 0x0 KECCAK256 SWAP1 PUSH1 0x4 DUP3 ADD SLOAD TIMESTAMP GT ISZERO PUSH2 0x21D2 JUMPI PUSH1 0xFF SWAP4 DUP5 PUSH1 0x8 DUP5 ADD SLOAD AND SWAP5 PUSH2 0x1F73 DUP7 PUSH2 0x25DD JUMP JUMPDEST PUSH1 0x1 SWAP6 DUP7 SUB PUSH2 0x2171 JUMPI PUSH1 0x5 DUP5 ADD SLOAD PUSH1 0x3 DUP6 ADD SLOAD GT ISZERO PUSH2 0x211C JUMPI DUP6 PUSH1 0x0 SWAP4 DUP4 PUSH1 0x0 MSTORE PUSH1 0x8 DUP8 MSTORE PUSH1 0x40 PUSH1 0x0 KECCAK256 CALLER PUSH1 0x0 MSTORE DUP8 MSTORE PUSH1 0x40 PUSH1 0x0 KECCAK256 SWAP3 DUP3 PUSH1 0x0 SWAP1 JUMPDEST PUSH2 0x20B0 JUMPI JUMPDEST POP POP POP POP POP DUP2 ISZERO SWAP3 DUP4 ISZERO PUSH2 0x2009 JUMPI JUMPDEST POP POP POP PUSH2 0x1FCF JUMPI POP PUSH1 0x0 SSTORE STOP JUMPDEST PUSH1 0x64 SWAP1 PUSH1 0x40 MLOAD SWAP1 PUSH3 0x461BCD PUSH1 0xE5 SHL DUP3 MSTORE PUSH1 0x4 DUP3 ADD MSTORE PUSH1 0x13 PUSH1 0x24 DUP3 ADD MSTORE PUSH19 0x4E6F20726566756E6420617661696C61626C65 PUSH1 0x68 SHL PUSH1 0x44 DUP3 ADD MSTORE REVERT JUMPDEST PUSH1 0x5 ADD PUSH2 0x2017 DUP4 DUP3 SLOAD PUSH2 0x2946 JUMP JUMPDEST SWAP1 SSTORE PUSH2 0x2025 DUP3 PUSH1 0x4 SLOAD PUSH2 0x2946 JUMP JUMPDEST PUSH1 0x4 SSTORE PUSH1 0x0 DUP1 DUP1 DUP1 DUP6 CALLER GAS CALL PUSH2 0x2039 PUSH2 0x2953 JUMP JUMPDEST POP ISZERO PUSH2 0x2072 JUMPI PUSH1 0x40 MLOAD SWAP2 DUP3 MSTORE PUSH32 0x7A482FDEB6BC9A1376F597068A214A7A39472BB2EFF1B8CAD21BA04F49DDCA1B DUP5 CALLER SWAP4 LOG3 DUP4 DUP1 DUP1 PUSH2 0x1FC2 JUMP JUMPDEST PUSH1 0x40 MLOAD PUSH3 0x461BCD PUSH1 0xE5 SHL DUP2 MSTORE PUSH1 0x4 DUP2 ADD DUP6 SWAP1 MSTORE PUSH1 0x16 PUSH1 0x24 DUP3 ADD MSTORE PUSH22 0x1499599D5B99081D1C985B9CD9995C8819985A5B1959 PUSH1 0x52 SHL PUSH1 0x44 DUP3 ADD MSTORE PUSH1 0x64 SWAP1 REVERT JUMPDEST DUP5 SLOAD DUP2 LT ISZERO PUSH2 0x2117 JUMPI DUP2 DUP4 PUSH2 0x20C5 DUP4 DUP9 PUSH2 0x265B JUMP JUMPDEST POP ADD SLOAD AND ISZERO PUSH2 0x20DE JUMPI JUMPDEST PUSH2 0x20D8 SWAP1 PUSH2 0x2832 JUMP JUMPDEST DUP4 PUSH2 0x1FAE JUMP JUMPDEST SWAP6 PUSH2 0x20F8 PUSH2 0x20D8 SWAP2 PUSH2 0x20F0 DUP10 DUP9 PUSH2 0x265B JUMP JUMPDEST POP SLOAD SWAP1 PUSH2 0x2855 JUMP JUMPDEST SWAP7 DUP4 PUSH2 0x2104 DUP3 DUP9 PUSH2 0x265B JUMP JUMPDEST POP ADD DUP1 SLOAD PUSH1 0xFF NOT AND DUP7 OR SWAP1 SSTORE SWAP1 POP PUSH2 0x20CF JUMP JUMPDEST PUSH2 0x1FB3 JUMP JUMPDEST PUSH1 0x40 MLOAD PUSH3 0x461BCD PUSH1 0xE5 SHL DUP2 MSTORE PUSH1 0x4 DUP2 ADD DUP7 SWAP1 MSTORE PUSH1 0x27 PUSH1 0x24 DUP3 ADD MSTORE PUSH32 0x5461726765742077617320726561636865642C206E6F20726566756E64206176 PUSH1 0x44 DUP3 ADD MSTORE PUSH7 0x61696C61626C65 PUSH1 0xC8 SHL PUSH1 0x64 DUP3 ADD MSTORE PUSH1 0x84 SWAP1 REVERT JUMPDEST PUSH1 0x40 MLOAD PUSH3 0x461BCD PUSH1 0xE5 SHL DUP2 MSTORE PUSH1 0x4 DUP2 ADD DUP7 SWAP1 MSTORE PUSH1 0x33 PUSH1 0x24 DUP3 ADD MSTORE PUSH32 0x526566756E6473206F6E6C7920617661696C61626C6520666F7220416C6C2D6F PUSH1 0x44 DUP3 ADD MSTORE PUSH19 0x722D4E6F7468696E672063616D706169676E73 PUSH1 0x68 SHL PUSH1 0x64 DUP3 ADD MSTORE PUSH1 0x84 SWAP1 REVERT JUMPDEST PUSH1 0x40 MLOAD PUSH3 0x461BCD PUSH1 0xE5 SHL DUP2 MSTORE PUSH1 0x4 DUP2 ADD DUP5 SWAP1 MSTORE PUSH1 0x16 PUSH1 0x24 DUP3 ADD MSTORE PUSH22 0x10D85B5C185A59DB881A185CC81B9BDD08195B991959 PUSH1 0x52 SHL PUSH1 0x44 DUP3 ADD MSTORE PUSH1 0x64 SWAP1 REVERT JUMPDEST CALLVALUE PUSH2 0x2D2 JUMPI PUSH1 0x0 CALLDATASIZE PUSH1 0x3 NOT ADD SLT PUSH2 0x2D2 JUMPI PUSH1 0x20 PUSH1 0x6 SLOAD PUSH1 0x40 MLOAD SWAP1 DUP2 MSTORE RETURN JUMPDEST CALLVALUE PUSH2 0x2D2 JUMPI PUSH1 0x60 CALLDATASIZE PUSH1 0x3 NOT ADD SLT PUSH2 0x2D2 JUMPI PUSH2 0x2247 PUSH2 0x2645 JUMP JUMPDEST PUSH1 0x44 CALLDATALOAD SWAP1 PUSH1 0x4 CALLDATALOAD PUSH1 0x0 MSTORE PUSH1 0x8 PUSH1 0x20 MSTORE PUSH1 0x40 PUSH1 0x0 KECCAK256 SWAP1 PUSH1 0x1 DUP1 PUSH1 0xA0 SHL SUB AND PUSH1 0x0 MSTORE PUSH1 0x20 MSTORE PUSH1 0x40 PUSH1 0x0 KECCAK256 DUP1 SLOAD DUP3 LT ISZERO PUSH2 0x2D2 JUMPI PUSH1 0x60 SWAP2 PUSH2 0x2284 SWAP2 PUSH2 0x265B JUMP JUMPDEST POP DUP1 SLOAD SWAP1 PUSH1 0xFF PUSH1 0x2 PUSH1 0x1 DUP4 ADD SLOAD SWAP3 ADD SLOAD AND SWAP1 PUSH1 0x40 MLOAD SWAP3 DUP4 MSTORE PUSH1 0x20 DUP4 ADD MSTORE ISZERO ISZERO PUSH1 0x40 DUP3 ADD MSTORE RETURN JUMPDEST CALLVALUE PUSH2 0x2D2 JUMPI PUSH2 0x22B8 CALLDATASIZE PUSH2 0x25FD JUMP JUMPDEST SWAP1 PUSH1 0x0 MSTORE PUSH1 0xB PUSH1 0x20 MSTORE PUSH1 0x40 PUSH1 0x0 KECCAK256 DUP1 SLOAD DUP3 LT ISZERO PUSH2 0x2D2 JUMPI PUSH2 0x230F SWAP2 PUSH2 0x22DC SWAP2 PUSH2 0x2613 JUMP JUMPDEST POP PUSH2 0x22E6 DUP2 PUSH2 0x24F7 JUMP JUMPDEST SWAP1 PUSH1 0x1 DUP2 ADD SLOAD SWAP1 PUSH1 0x3 PUSH1 0xFF PUSH1 0x2 DUP4 ADD SLOAD AND SWAP2 ADD SLOAD SWAP1 PUSH1 0x40 MLOAD SWAP5 DUP6 SWAP5 PUSH1 0x80 DUP7 MSTORE PUSH1 0x80 DUP7 ADD SWAP1 PUSH2 0x259D JUMP JUMPDEST SWAP3 PUSH1 0x20 DUP6 ADD MSTORE ISZERO ISZERO PUSH1 0x40 DUP5 ADD MSTORE PUSH1 0x60 DUP4 ADD MSTORE SUB SWAP1 RETURN JUMPDEST CALLVALUE PUSH2 0x2D2 JUMPI PUSH1 0x20 CALLDATASIZE PUSH1 0x3 NOT ADD SLT PUSH2 0x2D2 JUMPI PUSH1 0x4 CALLDATALOAD PUSH1 0x0 SWAP1 DUP2 MSTORE PUSH1 0x7 PUSH1 0x20 MSTORE PUSH1 0x40 SWAP1 KECCAK256 DUP1 SLOAD PUSH1 0x1 PUSH1 0x1 PUSH1 0xA0 SHL SUB AND PUSH2 0x235E PUSH1 0x1 DUP4 ADD PUSH2 0x24F7 JUMP JUMPDEST SWAP1 PUSH2 0x236B PUSH1 0x2 DUP5 ADD PUSH2 0x24F7 JUMP JUMPDEST SWAP3 PUSH1 0x3 DUP2 ADD SLOAD SWAP2 PUSH1 0x4 DUP3 ADD SLOAD SWAP1 PUSH1 0x5 DUP4 ADD SLOAD PUSH1 0x6 DUP5 ADD SLOAD PUSH1 0xFF AND PUSH1 0x7 DUP6 ADD PUSH2 0x2392 SWAP1 PUSH2 0x24F7 JUMP JUMPDEST SWAP3 PUSH1 0x8 DUP7 ADD SLOAD PUSH1 0xFF AND SWAP4 PUSH1 0x9 DUP8 ADD SLOAD SWAP2 PUSH1 0xA DUP9 ADD SLOAD SWAP4 PUSH1 0xB DUP10 ADD SLOAD SWAP6 PUSH1 0xC DUP11 ADD PUSH2 0x23BB SWAP1 PUSH2 0x24F7 JUMP JUMPDEST SWAP9 PUSH2 0x23C8 PUSH1 0xD DUP13 ADD PUSH2 0x24F7 JUMP JUMPDEST SWAP11 PUSH1 0xE ADD SLOAD PUSH1 0xFF AND SWAP12 PUSH1 0x40 MLOAD SWAP15 DUP16 SWAP15 DUP16 SWAP7 DUP8 MSTORE PUSH2 0x1E0 DUP1 PUSH1 0x20 DUP10 ADD MSTORE DUP8 ADD PUSH2 0x23EF SWAP2 PUSH2 0x259D JUMP JUMPDEST DUP7 DUP2 SUB PUSH1 0x40 DUP9 ADD MSTORE PUSH2 0x2400 SWAP2 PUSH2 0x259D JUMP JUMPDEST SWAP5 PUSH1 0x60 ADD MSTORE PUSH1 0x80 DUP14 ADD MSTORE PUSH1 0xA0 DUP13 ADD MSTORE ISZERO ISZERO PUSH1 0xC0 DUP12 ADD MSTORE DUP10 DUP2 SUB PUSH1 0xE0 DUP12 ADD MSTORE PUSH2 0x2427 SWAP2 PUSH2 0x259D JUMP JUMPDEST SWAP4 PUSH2 0x2431 DUP2 PUSH2 0x25DD JUMP JUMPDEST PUSH2 0x100 DUP10 ADD MSTORE PUSH2 0x120 DUP9 ADD MSTORE PUSH2 0x140 DUP8 ADD MSTORE PUSH2 0x160 DUP7 ADD MSTORE DUP5 DUP2 SUB PUSH2 0x180 DUP7 ADD MSTORE PUSH2 0x245B SWAP2 PUSH2 0x259D JUMP JUMPDEST DUP4 DUP2 SUB PUSH2 0x1A0 DUP6 ADD MSTORE PUSH2 0x246D SWAP2 PUSH2 0x259D JUMP JUMPDEST SWAP1 PUSH2 0x2477 DUP2 PUSH2 0x25DD JUMP JUMPDEST PUSH2 0x1C0 DUP4 ADD MSTORE SUB SWAP1 RETURN JUMPDEST SWAP1 PUSH1 0x1 DUP3 DUP2 SHR SWAP3 AND DUP1 ISZERO PUSH2 0x24B1 JUMPI JUMPDEST PUSH1 0x20 DUP4 LT EQ PUSH2 0x249B JUMPI JUMP JUMPDEST PUSH4 0x4E487B71 PUSH1 0xE0 SHL PUSH1 0x0 MSTORE PUSH1 0x22 PUSH1 0x4 MSTORE PUSH1 0x24 PUSH1 0x0 REVERT JUMPDEST SWAP2 PUSH1 0x7F AND SWAP2 PUSH2 0x2490 JUMP JUMPDEST PUSH1 0x60 DUP2 ADD SWAP1 DUP2 LT PUSH1 0x1 PUSH1 0x1 PUSH1 0x40 SHL SUB DUP3 GT OR PUSH2 0x67F JUMPI PUSH1 0x40 MSTORE JUMP JUMPDEST SWAP1 PUSH1 0x1F DUP1 NOT SWAP2 ADD AND DUP2 ADD SWAP1 DUP2 LT PUSH1 0x1 PUSH1 0x1 PUSH1 0x40 SHL SUB DUP3 GT OR PUSH2 0x67F JUMPI PUSH1 0x40 MSTORE JUMP JUMPDEST SWAP1 PUSH1 0x40 MLOAD SWAP2 DUP3 PUSH1 0x0 DUP3 SLOAD SWAP3 PUSH2 0x250B DUP5 PUSH2 0x2481 JUMP JUMPDEST SWAP1 DUP2 DUP5 MSTORE PUSH1 0x1 SWAP5 DUP6 DUP2 AND SWAP1 DUP2 PUSH1 0x0 EQ PUSH2 0x257A JUMPI POP PUSH1 0x1 EQ PUSH2 0x2537 JUMPI JUMPDEST POP POP PUSH2 0x2535 SWAP3 POP SUB DUP4 PUSH2 0x24D6 JUMP JUMPDEST JUMP JUMPDEST SWAP1 SWAP4 SWAP2 POP PUSH1 0x0 MSTORE PUSH1 0x20 SWAP1 DUP2 PUSH1 0x0 KECCAK256 SWAP4 PUSH1 0x0 SWAP2 JUMPDEST DUP2 DUP4 LT PUSH2 0x2562 JUMPI POP POP PUSH2 0x2535 SWAP4 POP DUP3 ADD ADD CODESIZE DUP1 PUSH2 0x2527 JUMP JUMPDEST DUP6 SLOAD DUP9 DUP5 ADD DUP6 ADD MSTORE SWAP5 DUP6 ADD SWAP5 DUP8 SWAP5 POP SWAP2 DUP4 ADD SWAP2 PUSH2 0x254A JUMP JUMPDEST SWAP2 POP POP PUSH2 0x2535 SWAP5 POP PUSH1 0x20 SWAP3 POP PUSH1 0xFF NOT AND DUP3 DUP5 ADD MSTORE ISZERO ISZERO PUSH1 0x5 SHL DUP3 ADD ADD CODESIZE DUP1 PUSH2 0x2527 JUMP JUMPDEST SWAP2 SWAP1 DUP3 MLOAD SWAP3 DUP4 DUP3 MSTORE PUSH1 0x0 JUMPDEST DUP5 DUP2 LT PUSH2 0x25C9 JUMPI POP POP DUP3 PUSH1 0x0 PUSH1 0x20 DUP1 SWAP5 SWAP6 DUP5 ADD ADD MSTORE PUSH1 0x1F DUP1 NOT SWAP2 ADD AND ADD ADD SWAP1 JUMP JUMPDEST PUSH1 0x20 DUP2 DUP4 ADD DUP2 ADD MLOAD DUP5 DUP4 ADD DUP3 ADD MSTORE ADD PUSH2 0x25A8 JUMP JUMPDEST PUSH1 0x4 GT ISZERO PUSH2 0x25E7 JUMPI JUMP JUMPDEST PUSH4 0x4E487B71 PUSH1 0xE0 SHL PUSH1 0x0 MSTORE PUSH1 0x21 PUSH1 0x4 MSTORE PUSH1 0x24 PUSH1 0x0 REVERT JUMPDEST PUSH1 0x40 SWAP1 PUSH1 0x3 NOT ADD SLT PUSH2 0x2D2 JUMPI PUSH1 0x4 CALLDATALOAD SWAP1 PUSH1 0x24 CALLDATALOAD SWAP1 JUMP JUMPDEST DUP1 SLOAD DUP3 LT ISZERO PUSH2 0x262F JUMPI PUSH1 0x0 MSTORE PUSH1 0x20 PUSH1 0x0 KECCAK256 SWAP1 PUSH1 0x2 SHL ADD SWAP1 PUSH1 0x0 SWAP1 JUMP JUMPDEST PUSH4 0x4E487B71 PUSH1 0xE0 SHL PUSH1 0x0 MSTORE PUSH1 0x32 PUSH1 0x4 MSTORE PUSH1 0x24 PUSH1 0x0 REVERT JUMPDEST PUSH1 0x24 CALLDATALOAD SWAP1 PUSH1 0x1 PUSH1 0x1 PUSH1 0xA0 SHL SUB DUP3 AND DUP3 SUB PUSH2 0x2D2 JUMPI JUMP JUMPDEST DUP1 SLOAD DUP3 LT ISZERO PUSH2 0x262F JUMPI PUSH1 0x0 MSTORE PUSH1 0x3 PUSH1 0x20 PUSH1 0x0 KECCAK256 SWAP2 MUL ADD SWAP1 PUSH1 0x0 SWAP1 JUMP JUMPDEST PUSH1 0x1 PUSH1 0x1 PUSH1 0x40 SHL SUB DUP2 GT PUSH2 0x67F JUMPI PUSH1 0x1F ADD PUSH1 0x1F NOT AND PUSH1 0x20 ADD SWAP1 JUMP JUMPDEST DUP2 PUSH1 0x1F DUP3 ADD SLT ISZERO PUSH2 0x2D2 JUMPI DUP1 CALLDATALOAD SWAP1 PUSH2 0x26A9 DUP3 PUSH2 0x2677 JUMP JUMPDEST SWAP3 PUSH2 0x26B7 PUSH1 0x40 MLOAD SWAP5 DUP6 PUSH2 0x24D6 JUMP JUMPDEST DUP3 DUP5 MSTORE PUSH1 0x20 DUP4 DUP4 ADD ADD GT PUSH2 0x2D2 JUMPI DUP2 PUSH1 0x0 SWAP3 PUSH1 0x20 DUP1 SWAP4 ADD DUP4 DUP7 ADD CALLDATACOPY DUP4 ADD ADD MSTORE SWAP1 JUMP JUMPDEST PUSH1 0x1 PUSH1 0x1 PUSH1 0x40 SHL SUB DUP2 GT PUSH2 0x67F JUMPI PUSH1 0x5 SHL PUSH1 0x20 ADD SWAP1 JUMP JUMPDEST SWAP1 DUP1 PUSH1 0x1F DUP4 ADD SLT ISZERO PUSH2 0x2D2 JUMPI DUP2 CALLDATALOAD SWAP1 PUSH2 0x2708 DUP3 PUSH2 0x26D9 JUMP JUMPDEST SWAP3 PUSH2 0x2716 PUSH1 0x40 MLOAD SWAP5 DUP6 PUSH2 0x24D6 JUMP JUMPDEST DUP3 DUP5 MSTORE PUSH1 0x20 SWAP3 DUP4 DUP1 DUP7 ADD SWAP2 PUSH1 0x5 SHL DUP4 ADD ADD SWAP3 DUP1 DUP5 GT PUSH2 0x2D2 JUMPI DUP5 DUP4 ADD SWAP2 JUMPDEST DUP5 DUP4 LT PUSH2 0x2744 JUMPI POP POP POP POP POP POP SWAP1 JUMP JUMPDEST DUP3 CALLDATALOAD PUSH1 0x1 PUSH1 0x1 PUSH1 0x40 SHL SUB DUP2 GT PUSH2 0x2D2 JUMPI DUP7 SWAP2 PUSH2 0x2765 DUP5 DUP5 DUP1 SWAP5 DUP10 ADD ADD PUSH2 0x2692 JUMP JUMPDEST DUP2 MSTORE ADD SWAP3 ADD SWAP2 PUSH2 0x2734 JUMP JUMPDEST SWAP1 DUP2 MLOAD DUP1 DUP3 MSTORE PUSH1 0x20 DUP1 DUP1 SWAP4 ADD SWAP4 ADD SWAP2 PUSH1 0x0 JUMPDEST DUP3 DUP2 LT PUSH2 0x2790 JUMPI POP POP POP POP SWAP1 JUMP JUMPDEST DUP4 MLOAD DUP6 MSTORE SWAP4 DUP2 ADD SWAP4 SWAP3 DUP2 ADD SWAP3 PUSH1 0x1 ADD PUSH2 0x2782 JUMP JUMPDEST SWAP1 DUP2 MLOAD DUP1 DUP3 MSTORE PUSH1 0x20 DUP1 DUP1 SWAP4 ADD SWAP4 ADD SWAP2 PUSH1 0x0 JUMPDEST DUP3 DUP2 LT PUSH2 0x27C4 JUMPI POP POP POP POP SWAP1 JUMP JUMPDEST DUP4 MLOAD ISZERO ISZERO DUP6 MSTORE SWAP4 DUP2 ADD SWAP4 SWAP3 DUP2 ADD SWAP3 PUSH1 0x1 ADD PUSH2 0x27B6 JUMP JUMPDEST PUSH1 0x1 SLOAD PUSH1 0x1 PUSH1 0x1 PUSH1 0xA0 SHL SUB AND CALLER SUB PUSH2 0x27EE JUMPI JUMP JUMPDEST PUSH1 0x64 PUSH1 0x40 MLOAD PUSH3 0x461BCD PUSH1 0xE5 SHL DUP2 MSTORE PUSH1 0x20 PUSH1 0x4 DUP3 ADD MSTORE PUSH1 0x20 PUSH1 0x24 DUP3 ADD MSTORE PUSH32 0x4F776E61626C653A2063616C6C6572206973206E6F7420746865206F776E6572 PUSH1 0x44 DUP3 ADD MSTORE REVERT JUMPDEST PUSH1 0x0 NOT DUP2 EQ PUSH2 0x695 JUMPI PUSH1 0x1 ADD SWAP1 JUMP JUMPDEST DUP1 MLOAD DUP3 LT ISZERO PUSH2 0x262F JUMPI PUSH1 0x20 SWAP2 PUSH1 0x5 SHL ADD ADD SWAP1 JUMP JUMPDEST SWAP2 SWAP1 DUP3 ADD DUP1 SWAP3 GT PUSH2 0x695 JUMPI JUMP JUMPDEST ISZERO PUSH2 0x2869 JUMPI JUMP JUMPDEST PUSH1 0x40 MLOAD PUSH3 0x461BCD PUSH1 0xE5 SHL DUP2 MSTORE PUSH1 0x20 PUSH1 0x4 DUP3 ADD MSTORE PUSH1 0x17 PUSH1 0x24 DUP3 ADD MSTORE PUSH32 0x43616D706169676E20646F6573206E6F74206578697374000000000000000000 PUSH1 0x44 DUP3 ADD MSTORE PUSH1 0x64 SWAP1 REVERT JUMPDEST PUSH1 0x2 PUSH1 0x0 SLOAD EQ PUSH2 0x28BF JUMPI PUSH1 0x2 PUSH1 0x0 SSTORE JUMP JUMPDEST PUSH1 0x40 MLOAD PUSH3 0x461BCD PUSH1 0xE5 SHL DUP2 MSTORE PUSH1 0x20 PUSH1 0x4 DUP3 ADD MSTORE PUSH1 0x1F PUSH1 0x24 DUP3 ADD MSTORE PUSH32 0x5265656E7472616E637947756172643A207265656E7472616E742063616C6C00 PUSH1 0x44 DUP3 ADD MSTORE PUSH1 0x64 SWAP1 REVERT JUMPDEST ISZERO PUSH2 0x290B JUMPI JUMP JUMPDEST PUSH1 0x40 MLOAD PUSH3 0x461BCD PUSH1 0xE5 SHL DUP2 MSTORE PUSH1 0x20 PUSH1 0x4 DUP3 ADD MSTORE PUSH1 0x13 PUSH1 0x24 DUP3 ADD MSTORE PUSH19 0x4E6F2066756E647320746F2072656C65617365 PUSH1 0x68 SHL PUSH1 0x44 DUP3 ADD MSTORE PUSH1 0x64 SWAP1 REVERT JUMPDEST SWAP2 SWAP1 DUP3 SUB SWAP2 DUP3 GT PUSH2 0x695 JUMPI JUMP JUMPDEST RETURNDATASIZE ISZERO PUSH2 0x297E JUMPI RETURNDATASIZE SWAP1 PUSH2 0x2964 DUP3 PUSH2 0x2677 JUMP JUMPDEST SWAP2 PUSH2 0x2972 PUSH1 0x40 MLOAD SWAP4 DUP5 PUSH2 0x24D6 JUMP JUMPDEST DUP3 MSTORE RETURNDATASIZE PUSH1 0x0 PUSH1 0x20 DUP5 ADD RETURNDATACOPY JUMP JUMPDEST PUSH1 0x60 SWAP1 JUMP JUMPDEST PUSH1 0xFF PUSH1 0x8 DUP3 ADD SLOAD AND PUSH2 0x2994 DUP2 PUSH2 0x25DD JUMP JUMPDEST DUP1 PUSH2 0x29A1 JUMPI POP PUSH1 0x5 ADD SLOAD SWAP1 JUMP JUMPDEST PUSH2 0x29AA DUP2 PUSH2 0x25DD JUMP JUMPDEST PUSH1 0x1 DUP2 SUB PUSH2 0x2A0B JUMPI POP PUSH1 0x3 PUSH1 0x5 DUP3 ADD SLOAD SWAP2 ADD SLOAD DUP2 LT PUSH2 0x29C6 JUMPI SWAP1 JUMP JUMPDEST PUSH1 0x40 MLOAD PUSH3 0x461BCD PUSH1 0xE5 SHL DUP2 MSTORE PUSH1 0x20 PUSH1 0x4 DUP3 ADD MSTORE PUSH1 0x19 PUSH1 0x24 DUP3 ADD MSTORE PUSH32 0x54617267657420616D6F756E74206E6F74207265616368656400000000000000 PUSH1 0x44 DUP3 ADD MSTORE PUSH1 0x64 SWAP1 REVERT JUMPDEST DUP1 PUSH2 0x2A17 PUSH1 0x2 SWAP3 PUSH2 0x25DD JUMP JUMPDEST SUB PUSH2 0x2A23 JUMPI PUSH1 0x5 ADD SLOAD SWAP1 JUMP JUMPDEST PUSH1 0x40 MLOAD PUSH3 0x461BCD PUSH1 0xE5 SHL DUP2 MSTORE PUSH1 0x20 PUSH1 0x4 DUP3 ADD MSTORE PUSH1 0x14 PUSH1 0x24 DUP3 ADD MSTORE PUSH20 0x496E76616C69642066756E64696E67206D6F6465 PUSH1 0x60 SHL PUSH1 0x44 DUP3 ADD MSTORE PUSH1 0x64 SWAP1 REVERT JUMPDEST SWAP1 PUSH1 0x0 SWAP2 DUP3 MSTORE PUSH1 0x20 PUSH1 0x8 DUP2 MSTORE PUSH1 0x40 SWAP2 DUP3 DUP5 KECCAK256 SWAP1 PUSH1 0x1 DUP1 PUSH1 0xA0 SHL SUB AND DUP5 MSTORE DUP2 MSTORE DUP2 DUP4 KECCAK256 DUP1 SLOAD SWAP1 PUSH2 0x2A8D DUP3 PUSH2 0x26D9 JUMP JUMPDEST SWAP3 PUSH2 0x2A9A DUP6 MLOAD SWAP5 DUP6 PUSH2 0x24D6 JUMP JUMPDEST DUP3 DUP5 MSTORE DUP1 DUP5 ADD SWAP2 DUP7 MSTORE DUP1 DUP7 KECCAK256 DUP7 SWAP3 JUMPDEST DUP5 DUP5 LT PUSH2 0x2AF0 JUMPI POP POP POP POP POP DUP3 JUMPDEST DUP2 MLOAD DUP2 LT ISZERO PUSH2 0x2AEA JUMPI DUP3 PUSH2 0x2ACB DUP3 DUP5 PUSH2 0x2841 JUMP JUMPDEST MLOAD ADD MLOAD ISZERO PUSH2 0x2AE1 JUMPI PUSH2 0x2ADC SWAP1 PUSH2 0x2832 JUMP JUMPDEST PUSH2 0x2AB7 JUMP JUMPDEST POP POP POP POP PUSH1 0x1 SWAP1 JUMP JUMPDEST POP POP POP SWAP1 JUMP JUMPDEST PUSH1 0x3 DUP4 PUSH1 0x1 SWAP3 DUP10 MLOAD PUSH2 0x2B01 DUP2 PUSH2 0x24BB JUMP JUMPDEST DUP6 SLOAD DUP2 MSTORE DUP5 DUP7 ADD SLOAD DUP4 DUP3 ADD MSTORE PUSH1 0xFF PUSH1 0x2 DUP8 ADD SLOAD AND ISZERO ISZERO DUP12 DUP3 ADD MSTORE DUP2 MSTORE ADD SWAP3 ADD SWAP4 ADD SWAP3 SWAP1 PUSH2 0x2AA9 JUMP JUMPDEST SWAP1 PUSH2 0x2B33 DUP3 PUSH2 0x26D9 JUMP JUMPDEST PUSH2 0x2B40 PUSH1 0x40 MLOAD SWAP2 DUP3 PUSH2 0x24D6 JUMP JUMPDEST DUP3 DUP2 MSTORE DUP1 SWAP3 PUSH2 0x2B51 PUSH1 0x1F NOT SWAP2 PUSH2 0x26D9 JUMP JUMPDEST ADD SWAP1 PUSH1 0x20 CALLDATASIZE SWAP2 ADD CALLDATACOPY JUMP INVALID LOG2 PUSH5 0x6970667358 0x22 SLT KECCAK256 0xD2 PUSH8 0x1030EA43DAB31DAA 0xDC TIMESTAMP 0x5F 0xE8 0xFB PUSH5 0x6625E95AAC 0xC0 0xCC 0xEA CODECOPY 0xEA 0xCD 0xA9 PUSH3 0xA16ADA PUSH5 0x736F6C6343 STOP ADDMOD SGT STOP CALLER "},"methodIdentifiers":{"campaignCount()":"7274e30d","campaigns(uint256)":"141961bc","completedCampaigns()":"9ce3734a","contribute(uint256)":"c1cbbca7","contributions(uint256,address,uint256)":"1dbcfc44","createCampaign(string,string,uint256,uint256,string,uint8,string,string,string[],uint256[],string[])":"abfa6f8e","getCampaign(uint256)":"5598f8cc","getCampaignCount()":"6caa9218","getCampaignMilestones(uint256)":"f91e4b29","getUserContributions(uint256,address)":"d0ece989","hasRedeemedReward(uint256,address)":"7265d951","hasVoted(uint256,address)":"43859632","milestones(uint256,uint256)":"1c376c63","owner()":"8da5cb5b","platformFee()":"26232a2e","redeemReward(uint256)":"51a71b17","refund(uint256)":"278ecde1","releaseFunds(uint256)":"4d68282f","renounceOwnership()":"715018a6","totalFundsRaised()":"427c0c7f","transferOwnership(address)":"f2fde38b","updatePlatformFee(uint256)":"aa0b5988","voteForMilestone(uint256,uint256)":"aeb8de89"}}}}}